:100000000C94A0000C948C3D0C94C1000C94C10085
:100010000C94C1000C94C1000C94C1000C94C1005C
:100020000C94C1000C94C1000C94C1000C94C1004C
:100030000C94C1000C94C1000C94C1000C94C1003C
:100040000C94C1000C94C1000C94C1000C94C1002C
:100050000C94C1000C94263D0C94C1000C94C1007A
:100060000C94C1000C94C1000C94C1000C94C1000C
:100070000C94C1000C94ED3A0C94C1000C94C10096
:100080000C94AD3A0C94C1000C94C1000C94C100C6
:100090000C94C1000C94C1000C94C1000C94C100DC
:1000A0000C94C1000C94C1000C94C1000C94C100CC
:1000B0000C94C1000C94C1000C94C1000C94C100BC
:1000C0000C94C1000C94C1000C94C1000C94C100AC
:1000D0000C94C1000C94C1000C94C1000C94C1009C
:1000E0000C94C1000100785634120A00100001007F
:1000F0001800F000000000000000000005001000E3
:100100000A000000000005001000000000000000D0
:1001100002000000040000000200010001000100D4
:1001200001000000AF000100080010000000AF0057
:10013000000001000B003F00640001001E01CC0321
:1001400011241FBECFEFD1E2DEBFCDBF00E00CBF58
:1001500014E0A0E0B2E0E0E4F7E800E00BBF02C08A
:1001600007900D92AE3FB107D9F71FE0AEEFB4E0B4
:1001700001C01D92AC30B107E1F70E944B3B0C94DB
:100180009E430C9400008FB7F89408958FBF089594
:100190000E94B30300914005039500934005E09150
:1001A000C407F091C507C191CDBFD191DEBF0F91BA
:1001B0000F770FBF0F910BBFFF91EF91DF91CF91A1
:1001C000BF91AF919F918F917F916F915F914F916F
:1001D0003F912F911F910F91FF90EF90DF90CF9063
:1001E000BF90AF909F908F907F906F905F904F9057
:1001F0003F902F901F900F9018950F921F922F9263
:100200003F924F925F926F927F928F929F92AF92A6
:10021000BF92CF92DF92EF92FF920F931F932F9393
:100220003F934F935F936F937F938F939F93AF937E
:10023000BF93CF93DF93EF93FF930BB70F930FB75A
:100240000F93E0917B08F0917C08CDB7C193DEB7A6
:10025000D1930E94B303009147050093B807E09142
:10026000C407F091C507E0937B08F0937C08C19127
:10027000CDBFD191DEBF0F9107FD24C00FBF0F91FD
:100280000BBFFF91EF91DF91CF91BF91AF919F9104
:100290008F917F916F915F914F913F912F911F911E
:1002A0000F91FF90EF90DF90CF90BF90AF909F9015
:1002B0008F907F906F905F904F903F902F901F9006
:1002C0000F9008950F770FBF0F910BBFFF91EF9124
:1002D000DF91CF91BF91AF919F918F917F916F915E
:1002E0005F914F913F912F911F910F91FF90EF9050
:1002F000DF90CF90BF90AF909F908F907F906F9046
:100300005F904F903F902F901F900F9018950E94F4
:10031000B303009147050093B807E091C407F0913B
:10032000C507E0937B08F0937C08C191CDBFD191C4
:10033000DEBF0F9107FD24C00FBF0F910BBFFF91D0
:10034000EF91DF91CF91BF91AF919F918F917F916D
:100350006F915F914F913F912F911F910F91FF905E
:10036000EF90DF90CF90BF90AF909F908F907F9055
:100370006F905F904F903F902F901F900F90089537
:100380000F770FBF0F910BBFFF91EF91DF91CF91CF
:10039000BF91AF919F918F917F916F915F914F919D
:1003A0003F912F911F910F91FF90EF90DF90CF9091
:1003B000BF90AF909F908F907F906F905F904F9085
:1003C0003F902F901F900F901895DF93CF93CDB74C
:1003D000DEB71092FF041092FE04CF91DF910895D2
:1003E000DF93CF93CDB7DEB7CF91DF910895DF9341
:1003F000CF930F920F92CDB7DEB79A83898389810D
:100400009A810E94773C0F900F90CF91DF910895D1
:10041000DF93CF930F920F92CDB7DEB79A83898384
:1004200089819A810E94843C0F900F90CF91DF9137
:100430000895DF93CF93CDB7DEB70E94913CCF9163
:10044000DF910895DF93CF93CDB7DEB70E94983C3C
:10045000CF91DF910895DF93CF93CDB7DEB72C977F
:100460000FB6F894DEBF0FBECDBF9E838D83788715
:100470006F835A8749873C872B8789859A859C8318
:100480008B838D819E819A83898329818B819C8135
:10049000FC0120838B819C8101979C838B838981C4
:1004A0009A81892F99279A83898329818B819C81BD
:1004B000FC0120838B819C8101979C838B831A8212
:1004C000198229818B819C81FC0120838B819C81F5
:1004D00001979C838B838B819C81FC0110828B8193
:1004E0009C8101979C838B838B819C81FC01108272
:1004F0008B819C8101979C838B838B819C81FC01E8
:1005000010828B819C8101979C838B838B819C8142
:10051000FC0110828B819C8101979C838B838B8152
:100520009C81FC0110828B819C8101979C838B8331
:100530008B819C81FC0110828B819C8101979C8323
:100540008B838B819C81FC0110828B819C81019724
:100550009C838B838B819C81FC0110828B819C818D
:1005600001979C838B838B819C81FC0110828B8102
:100570009C8101979C838B838B819C81FC011082E1
:100580008B819C8101979C838B838B819C81FC0157
:1005900010828B819C8101979C838B838B819C81B2
:1005A000FC0110828B819C8101979C838B838B81C2
:1005B0009C81FC0110828B819C8101979C838B83A1
:1005C0008B819C81FC0110828B819C8101979C8393
:1005D0008B838B819C81FC0110828B819C81019794
:1005E0009C838B838B819C81FC0110828B819C81FD
:1005F00001979C838B838B819C81FC0110828B8172
:100600009C8101979C838B838B819C81FC01108250
:100610008B819C8101979C838B838B819C81FC01C6
:1006200010828B819C8101979C838B838B819C8121
:10063000FC0110828B819C8101979C838B838B8131
:100640009C81FC0110828B819C8101979C838B8310
:100650008B819C81FC0110828B819C8101979C8302
:100660008B838B819C81FC0110828B819C81019703
:100670009C838B838B819C81FC0110828B819C816C
:1006800001979C838B838F8198859A8389832981A5
:100690008B819C81FC0120838B819C8101979C83B1
:1006A0008B8389819A81892F9927282F8B819C811F
:1006B000FC0120838B819C8101979C838B838B81A0
:1006C0009C81FC0110828B819C8101979C838B8390
:1006D0008B819C81FC0110828B819C8101979C8382
:1006E0008B838B819C81FC0110828B819C81019783
:1006F0009C838B838B819C81FC0110828B819C81EC
:1007000001979C838B838B819C81FC0110828B8160
:100710009C8101979C838B838B819C81FC0110823F
:100720008B819C8101979C838B838B819C81FC01B5
:1007300010828B819C8101979C838B838B819C8110
:1007400020E8FC0120838B819C8101979C838B8313
:100750008B819C812C960FB6F894DEBF0FBECDBF67
:10076000CF91DF910895DF93CF93CDB7DEB70E948D
:10077000653CCF91DF910895DF93CF930F920F9255
:10078000CDB7DEB79A83898389819A810E949F3C85
:100790000F900F90CF91DF910895DF93CF93CDB756
:1007A000DEB70E94AC3C8091FE049091FF0401965C
:1007B0009093FF048093FE048091FE049091FF04C7
:1007C0008A30910530F01092FF041092FE040E94CE
:1007D000701ACF91DF910895DF93CF930F920F920C
:1007E000CDB7DEB784EE90E09A83898386EE90E001
:1007F0009A8389838AEE90E09A8389838CEE90E0D5
:100800009A8389838EEE90E09A83898380EF90E0CB
:100810009A83898382EF90E09A83898384EF90E0C2
:100820009A83898386EF90E09A83898388EF90E0AA
:100830009A8389838AEF90E09A8389838CEF90E092
:100840009A8389838EEF90E09A83898380E091E098
:100850009A83898382E091E09A83898384E091E09E
:100860009A83898386E091E09A83898388E091E086
:100870009A8389838AE091E09A8389838CE091E06E
:100880009A8389838EE091E09A83898380E191E065
:100890009A83898382E191E09A83898384E191E05C
:1008A0009A83898386E191E09A83898388E191E044
:1008B0009A8389838AE191E09A8389838CE191E02C
:1008C0009A8389838EE191E09A83898380E291E023
:1008D0009A83898382E291E09A83898384E291E01A
:1008E0009A83898386E291E09A83898388E291E002
:1008F0009A8389838AE291E09A8389838CE291E0EA
:100900009A8389838EE291E09A83898380E391E0E0
:100910009A83898382E391E09A83898384E391E0D7
:100920009A83898386E391E09A83898388E391E0BF
:100930009A8389838AE391E09A8389838CE391E0A7
:100940009A8389838EE391E09A8389830F900F9035
:10095000CF91DF910895DF93CF93CDB7DEB728977E
:100960000FB6F894DEBF0FBECDBF9C838B837E8312
:100970006D8358874F83198280917A08882339F0D4
:100980008F81988521E1FC01208380E027C08B8145
:100990009C81FC018081882F90E001978430910533
:1009A000B8F40E94C30089838B819C819C01285FDD
:1009B0003F4F8D819E81B9010E94D10A8A8389812E
:1009C0000E94C6008F819885FC0110828A8106C032
:1009D0008F81988521E0FC01208380E028960FB666
:1009E000F894DEBF0FBECDBFCF91DF910895DF93A6
:1009F000CF93CDB7DEB728970FB6F894DEBF0FBE02
:100A0000CDBF9C838B837E836D8358874F831982F0
:100A100080917A08882331F08F81988522E1FC014A
:100A2000208334C08B819C81FC018081882F90E0E1
:100A300001978430910560F40E94C30089838D8101
:100A40009E810E94060B8A838A81803138F40FC010
:100A50008F81988521E0FC01208318C089810E9444
:100A6000C6008F8198852BE0FC0120830FC08B810D
:100A70009C8108962D813E81B9010E94D10A89810D
:100A80000E94C6008F819885FC01108228960FB6BF
:100A9000F894DEBF0FBECDBFCF91DF910895DF93F5
:100AA000CF93CDB7DEB70E94E5010E94FE080E94F9
:100AB00025090E94A2090E949E080E9453090E94D3
:100AC0001E1B0E94F0010E94EC03CF91DF9108955C
:100AD000DF93CF93CDB7DEB780914005813049F4E5
:100AE00080917A088F3F29F080917A088F5F8093F8
:100AF0007A08CF91DF910895DF93CF930F92CDB70E
:100B0000DEB7198280914005813009F055C00E94FE
:100B1000C300898380917A08882329F080917A081C
:100B2000815080937A0880917A08882309F041C027
:100B300080913D058823E9F50E94AA0A9091470516
:100B40008091B8079817A9F180914705882F90E008
:100B5000880F991F825E934FFC0180819181909351
:100B6000C5078093C4072091C4073091C507F901D8
:100B7000858D968DA78DB0A10196A11DB11DF9019E
:100B8000858F968FA78FB0A38091BB079091BC07EC
:100B9000A091BD07B091BE070196A11DB11D809324
:100BA000BB079093BC07A093BD07B093BE070E94FC
:100BB000870189810E94C6000F90CF91DF9108952F
:100BC000DF93CF930F92CDB7DEB7198280914005A6
:100BD000813099F40E94C300898380917A08882328
:100BE00049F480913D058F3F29F080913D058F5F4D
:100BF00080933D0589810E94C6000F90CF91DF91BF
:100C00000895DF93CF930F92CDB7DEB7198280910D
:100C10004005813029F50E94C300898380913D05FC
:100C20008823D9F080913D05815080933D058091C6
:100C30003D05882371F480917A08882331F48981F5
:100C40000E94C6000E94540A0BC089810E94C600FF
:100C500007C089810E94C60003C089810E94C60026
:100C60000F90CF91DF910895DF93CF93CDB7DEB78B
:100C7000809140058823F9F40E94AA0A80914705D3
:100C80008093B80780914705882F90E0880F991FBF
:100C9000825E934FFC01808191819093C507809380
:100CA000C4078091C4079091C50790937C088093F6
:100CB0007B080E94C800CF91DF910895DF93CF9306
:100CC00000D0CDB7DEB719820E94CD030E94C300C9
:100CD00089838091810890918208A0918308B091C6
:100CE00084080196A11DB11D80938108909382080C
:100CF000A0938308B093840889810E94C6008091E4
:100D00004005813009F082C08091B9079091BA07FF
:100D10009B838A8374C00E94C30089838A819B81DC
:100D2000FC0184899589009709F45FC08A819B81C1
:100D3000FC01848995899C01215030408A819B81E6
:100D4000FC01358B248B8A819B81FC0184899589E8
:100D5000009709F04AC08A819B81FC018689882F0F
:100D600090E087739070009781F08A819B81FC01ED
:100D70008689282F287C8A819B81FC01268B8A8189
:100D80009B8121E0FC01278B04C08A819B81FC01AF
:100D9000178A8A819B81FC018689882F90E0887060
:100DA0009070009711F58A819B81FC01948D809150
:100DB000C607892B8093C6078A819B81FC01828D9F
:100DC000882F90E02A813B81F901228D222F30E08B
:100DD0002953384FF90140812A813B81F901238D44
:100DE000242B8953984FFC0120838A819B81FC012D
:100DF000868597859B838A8389810E94C6008A8124
:100E00009B81FC01808D8A3009F085CF0F900F9077
:100E10000F90CF91DF910895DF93CF93CDB7DEB7D9
:100E20008EE191E0CF91DF910895DF93CF93CDB71D
:100E3000DEB72B970FB6F894DEBF0FBECDBF9F83F2
:100E40008E83798768874A872B878E819F81FC01F3
:100E50008581882F90E080509E4FFC0180818B839C
:100E60008B81882F90E02E813F81820F931F069601
:100E7000FC018081882F90E080509E4FFC01808192
:100E80008A838B81982F990F990F990F8A81890FE7
:100E900089838981882F90E0880F991F825E934F04
:100EA000FC01808191819D838C838C819D81FC01DB
:100EB000158A148A8C819D81FC018689982F8A85E8
:100EC00080958923282F8C819D81FC01268B8C8124
:100ED0009D812B85FC01278B8C819D81FC0186895E
:100EE000882F90E0887090700097E1F48C819D814C
:100EF000FC01948D8091C607892B8093C6078B8156
:100F0000882F90E02B81222F30E02953384FF901B0
:100F100040812C813D81F901238D242B8953984FE9
:100F2000FC0120838C819D812E813F81B9010E942B
:100F3000220889812B960FB6F894DEBF0FBECDBF75
:100F4000CF91DF910895DF93CF9300D0CDB7DEB777
:100F50009B838A8380917B0890917C082A813B81C6
:100F6000FC01338B228B80917B0890917C08FC01E3
:100F7000828D882F90E020917B0830917C08F901C8
:100F8000228D222F30E04A815B81240F351F2A5F9A
:100F90003F4FF901408120917B0830917C08F90195
:100FA000238D422B2A813B81820F931F0696FC01E1
:100FB00040838A819B81FC01258180917B089091EF
:100FC0007C08FC01848D282B8A819B81FC01258370
:100FD00080917B0890917C08FC01828D89838981B6
:100FE000882F90E02981222F30E02953384FF901D2
:100FF0002081422F20917B0830917C08F901238DBC
:10100000209524238953984FFC0120838981882FC0
:1010100090E08953984FFC018081882369F4809186
:101020007B0890917C08FC01848D982F909580918D
:10103000C60789238093C6070F900F900F90CF911A
:10104000DF910895DF93CF9300D00F920F92CDB729
:10105000DEB79B838A837D836C838A819B81FC01BD
:10106000828D89838981882F90E02981222F30E029
:101070004C815D81240F351F2A5F3F4FF90120818C
:10108000422F2A813B81F901238D20952423422F71
:101090002C813D81820F931F0696FC01408389813C
:1010A000882F90E02C813D81820F931F0696FC01D2
:1010B0008081882381F48C819D81FC018581282F8A
:1010C0008A819B81FC01848D80958223282F8C81CD
:1010D0009D81FC0125830F900F900F900F900F9032
:1010E000CF91DF910895DF93CF9300D00F920F92AD
:1010F000CDB7DEB79D838C838C819D81FC011582E9
:101100008C819D8106969B838A8319820CC08A817B
:101110009B81FC0110828A819B8101969B838A833B
:1011200089818F5F89838981823088F30F900F9046
:101130000F900F900F90CF91DF910895DF93CF9391
:1011400000D000D0CDB7DEB786E399E060EF70E065
:101150000E94FF0986E399E09C838B838EE499E0EB
:101160009A8389831E821D8223C08B819C81FC010E
:1011700010828B819C8129813A81FC0132832183F9
:101180008B819C812FE3FC0120878B819C81FC015A
:1011900011868B819C8148969C838B8389819A815F
:1011A00048969A8389838D819E8101969E838D8343
:1011B0008D819E8189309105C0F28B819C81FC01DB
:1011C00010828B819C81FC01128211828B819C8117
:1011D0002FE3FC0120878B819C81FC01118686E333
:1011E00099E0909379088093780826960FB6F89442
:1011F000DEBF0FBECDBFCF91DF910895DF93CF93B8
:10120000CDB7DEB710928108109282081092830841
:101210001092840810927A0810923D051092C3072C
:10122000109240051092BB071092BC071092BD07A8
:101230001092BE071092410510924205109243058C
:1012400010924405CF91DF910895DF93CF9300D0A2
:10125000CDB7DEB71092C60787EC97E09A838983F3
:101260001B820CC089819A81FC01108289819A813C
:1012700001969A8389838B818F5F8B838B818230E8
:1012800088F31092B807109247051092C507109284
:10129000C40710927C0810927B080F900F900F905B
:1012A000CF91DF9108958F929F92AF92BF92CF928C
:1012B000DF92EF92FF920F931F93DF93CF930F92E2
:1012C000CDB7DEB70F920F924DB75EB74F5F5F4F4E
:1012D00084E29BE025E339E0E7E8F8E063E070E0D2
:1012E000DA016D937C9360E070E0A9012AE00FEFD2
:1012F0001FEF7F010F2EFFEAAF2EF0E0BF2EF0E0D0
:10130000CF2EF0E0DF2EF02D882499240E94B21118
:101310000F900F9020E033E08AE0B9019E012F5F2B
:101320003F4FA9010E94C2120F90CF91DF911F91F0
:101330000F91FF90EF90DF90CF90BF90AF909F9074
:101340008F900895DF93CF9300D00F920F92CDB777
:10135000DEB786E29AE068EF71E00E94FF098EE155
:101360009CE066E170E00E94FF0986E29AE09C83BF
:101370008B8385E69AE09A8389831D821DC08B81C9
:101380009C8129813A81FC01378726878B819C814A
:101390002FE3FC0127A78B819C81FC0110AA8B8184
:1013A0009C81CF969C838B8389819A81CF969A83E7
:1013B00089838D818F5F8D838D81873000F38B8151
:1013C0009C81FC01178616868B819C812FE3FC0192
:1013D00027A78B819C81FC0110AA1092BA0710925A
:1013E000B90786E29AE09093C2078093C1070F90F5
:1013F0000F900F900F900F90CF91DF910895DF9392
:10140000CF9300D00F92CDB7DEB79A8389837C83C8
:101410006B830EC089819A81FC01108289819A8137
:1014200001969A8389838B819C8101979C838B830E
:101430008B819C81009771F70F900F900F900F9008
:10144000CF91DF910895DF93CF9300D000D0CDB737
:10145000DEB79A8389837C836B835E834D8317C059
:101460008B819C81FC01208189819A81FC012083F0
:1014700089819A8101969A8389838B819C810196C7
:101480009C838B838D819E8101979E838D838D812B
:101490009E81009729F726960FB6F894DEBF0FBEFF
:1014A000CDBFCF91DF910895DF93CF930F92CDB74A
:1014B000DEB719820E94C300898380917A0888234D
:1014C00009F041C080913D058823E9F50E94AA0AF0
:1014D000909147058091B8079817A9F18091470529
:1014E000882F90E0880F991F825E934FFC018081C6
:1014F00091819093C5078093C4072091C4073091D0
:10150000C507F901858D968DA78DB0A10196A11D06
:10151000B11DF901858F968FA78FB0A38091BB076E
:101520009091BC07A091BD07B091BE070196A11D87
:10153000B11D8093BB079093BC07A093BD07B093E8
:10154000BE070E94FD0089810E94C6000F90CF91C6
:10155000DF910895DF93CF930F92CDB7DEB78091DF
:10156000C607882F90E080509E4FFC0180818983C0
:101570008981282F220F220F220F8981882F90E046
:101580008953984FFC018081882F90E080509E4FB6
:10159000FC018081820F809347050F90CF91DF91EE
:1015A0000895DF93CF9300D00F920F92CDB7DEB79F
:1015B0009B838A837D836C83198215C08C819D8176
:1015C000FC0120818A819B81FC0120838A819B818F
:1015D00001969B838A838C819D8101969D838C8358
:1015E00089818F5F89838C819D81FC018081882323
:1015F00029F78A819B81FC01108289810F900F90CD
:101600000F900F900F90CF91DF910895DF93CF93BC
:1016100000D0CDB7DEB79B838A83198208C08A8148
:101620009B8101969B838A8389818F5F89838A81CD
:101630009B81FC018081882391F789810F900F9015
:101640000F90CF91DF910895DF93CF9300D0CDB766
:10165000DEB79B838A8319820E94C30089838091AD
:10166000410590914205A0914305B0914405019632
:10167000A11DB11D8093410590934205A0934305A0
:10168000B093440589810E94C6000E941902E4CFEC
:10169000AF92BF92CF92DF92EF92FF920F931F9380
:1016A000DF93CF93CDB7DEB762970FB6F894DEBF66
:1016B0000FBECDBF8C837E836D8358874F833A875F
:1016C0002987EB86FC860D871E87D88ACF86BA8A43
:1016D000A98A19820E94C30089838091C1079091D1
:1016E000C2079B838A838A819B81009709F415C175
:1016F0008A819B81FC01868597859093C2078093A0
:10170000C10789810E94C6008A819B812D813E810B
:10171000FC01318320838A819B812C81FC01208FF5
:101720008A819B81FC01168A8A819B81FC01178A30
:101730008A819B81FC01158A148A8A819B812F856D
:101740003889FC01338322832A813B818B859C85E8
:10175000AD85BE85F90186839783A087B1878A818D
:101760009B812F813885FC01358324838A819B816D
:1017700029893A89FC01338722878A819B812985BF
:101780003A85FC01358724878C81282F269526955C
:1017900026958A819B81FC01228F8C81282F2770BE
:1017A0008A819B81FC01218F8A819B81FC01828D32
:1017B000282F30E081E090E002C0880F991F2A9521
:1017C000E2F7282F8A819B81FC01248F8A819B81EB
:1017D000FC01818D282F30E081E090E002C0880F6D
:1017E000991F2A95E2F7282F8A819B81FC01238F7C
:1017F0008A819B81FC01138A128A8A819B81FC0168
:10180000158E168E178E10A28A819B81FC0115A25F
:1018100016A217A210A68A819B81FC0111A212A216
:1018200013A214A28A819B81FC0112A611A68A81AF
:101830009B81FC0113A614A615A616A68A819B817E
:101840002FE3FC0127A78A819B81FC0110AA8A81D2
:101850009B810E94BC038A819B810E94F7010E94A8
:10186000C30089838C81882F90E0880F991F825E46
:10187000934F2A813B81FC01318320832091B9075A
:101880003091BA078A819B81FC01378726878A813C
:101890009B81FC01118A108A8091B9079091BA0747
:1018A000009749F08091B9079091BA072A813B814E
:1018B000FC01318B208B8A819B819093BA078093A6
:1018C000B9078A819B81FC01948D8091C607892B81
:1018D0008093C6078A819B81FC01828D882F90E0CE
:1018E0002A813B81F901228D222F30E02953384F84
:1018F000F90140812A813B81F901238D242B8953F1
:10190000984FFC0120838091C3078F5F8093C307AA
:1019100089810E94C60080E004C089810E94C600BF
:1019200082E462960FB6F894DEBF0FBECDBFCF91B2
:10193000DF911F910F91FF90EF90DF90CF90BF90BC
:10194000AF900895DF93CF930F920F92CDB7DEB78C
:101950008EE093E09A83898380E193E09A83898380
:1019600086E193E09A83898388E193E09A8389836F
:1019700084E193E09A8389838AE193E09A8389835F
:101980008CE193E09A8389838EE193E09A83898343
:1019900080E293E09A83898382E293E09A83898349
:1019A00084E293E09A83898386E293E09A83898331
:1019B00088E293E09A8389838AE293E09A83898319
:1019C0008CE293E09A8389838EE293E09A83898301
:1019D00080E393E09A83898382E393E09A83898307
:1019E00084E393E09A83898386E393E09A838983EF
:1019F00088E393E09A8389838AE393E09A838983D7
:101A00008CE393E09A8389838EE393E09A838983BE
:101A100080E493E09A83898382E493E09A838983C4
:101A200084E493E09A83898386E493E09A838983AC
:101A300088E493E09A8389838AE493E09A83898394
:101A40008CE493E09A8389838EE493E09A8389837C
:101A500080E593E09A83898382E593E09A83898382
:101A600084E593E09A83898386E593E09A8389836A
:101A700088E593E09A8389838AE593E09A83898352
:101A80008CE593E09A8389838EE593E09A8389833A
:101A900080E693E09A83898382E693E09A83898340
:101AA00084E693E09A83898386E693E09A83898328
:101AB00088E495E09A8389838DE195E09A83898310
:101AC0008AE693E09A8389838CE693E09A838983FC
:101AD0008EE693E09A83898380E793E09A838983F3
:101AE00082E793E09A83898384E793E09A838983EA
:101AF00086E793E09A83898388E793E09A838983D2
:101B00008AE793E09A83898388E693E09A838983BE
:101B10008CE793E09A8389830F900F90CF91DF91A8
:101B20000895DF93CF9300D00F920F92CDB7DEB719
:101B30009D838C8319828C819D81FC0180818330FF
:101B400019F080E090E020C00E94C30089838C815E
:101B50009D81FC01838194819B838A838A819B81FF
:101B6000009769F08C819D81FC01838194819C01A7
:101B7000215030408C819D81FC01348323838981F5
:101B80000E94C6008A819B810F900F900F900F904A
:101B90000F90CF91DF910895DF93CF9300D00F92F4
:101BA0000F92CDB7DEB79D838C83198280917A081E
:101BB000882319F080E090E041C00E94C30089832F
:101BC00080917808909179089B838A838091780826
:101BD00090917908009759F0809178089091790850
:101BE000FC018181928190937908809378088981A2
:101BF0000E94C6008A819B810097F1F08A819B81B7
:101C000023E0FC0120838A819B812C813D81FC01A2
:101C1000348323838A819B81FC01128211828A8111
:101C20009B812FE3FC0120878A819B81FC01118627
:101C30008A819B810E9473088A819B810F900F90FB
:101C40000F900F900F90CF91DF910895DF93CF9376
:101C5000CDB7DEB729970FB6F894DEBF0FBECDBF64
:101C60009E838D836F835987488719828D819E81DA
:101C7000FC018081833041F08885998521E0FC0159
:101C800020838D819E81ACC080917A08882341F0A9
:101C9000888599852FE0FC0120838D819E81A0C0DD
:101CA0000E94C30089838D819E81FC0185818823E8
:101CB00019F081E08C8301C01C828F81882F90E015
:101CC000009729F08130910509F445C07BC08C81D3
:101CD000882359F58D819E812FE3FC0120878D811A
:101CE0009E81FC0111868D819E81FC0110822091D4
:101CF0007808309179088D819E81FC01328321839F
:101D00008D819E81FC01148213828D819E8190932E
:101D100079088093780889810E94C6008885998512
:101D2000FC0110821B821A8259C089810E94C60060
:101D30008885998529E4FC0120838D819E819B8380
:101D40008A834CC08D819E8160E070E041E020E09C
:101D50000E94150701C000008D819E81FC018581D4
:101D6000882381F78D819E812FE3FC0120878D815F
:101D70009E81FC0111868D819E81FC011082209143
:101D80007808309179088D819E81FC01328321830E
:101D90008D819E81FC01148213828D819E8190939E
:101DA00079088093780889810E94C6008C818130EF
:101DB00011F40E94540A88859985FC0110821B82C7
:101DC0001A820CC089810E94C6008885998527E007
:101DD000FC0120838D819E819B838A838A819B81E4
:101DE00029960FB6F894DEBF0FBECDBFCF91DF911D
:101DF0000895DF93CF93CDB7DEB727970FB6F8944A
:101E0000DEBF0FBECDBF9B838A837D836C835F83E0
:101E10004E8319828A819B81FC018081833031F05D
:101E20008E819F8121E0FC01208398C080917A08F7
:101E3000882331F08E819F8122E0FC0120838EC0B7
:101E400080913D05882331F08E819F812DE0FC013A
:101E5000208384C00E94C30089838A819B81FC0106
:101E6000838194810097A9F08A819B81FC01838101
:101E700094819C01215030408A819B81FC013483F4
:101E8000238389810E94C6008E819F81FC0110827C
:101E900065C080917B0890917C0820917B083091EF
:101EA0007C08F90126892160FC01268B80917B0842
:101EB00090917C08FC01178A80917B0890917C08A6
:101EC0002C813D81FC01358B248B8A819B810E9472
:101ED000A30789810E94C6000E94540A0E94C30081
:101EE000898380917B0890917C08FC018789882FE9
:101EF00090E0009721F08230910531F00BC08E8187
:101F00009F81FC01108214C08E819F812EE0FC0114
:101F100020830EC080917B0890917C082A813B81B0
:101F2000B9010E9422088E819F812AE0FC01208352
:101F300080917B0890917C08FC01168A80917B0837
:101F400090917C08FC01178A80917B0890917C0815
:101F5000FC01138A128A89810E94C60027960FB657
:101F6000F894DEBF0FBECDBFCF91DF910895DF9310
:101F7000CF93CDB7DEB727970FB6F894DEBF0FBE6D
:101F8000CDBF9C838B836D835F834E8319828B814E
:101F90009C81FC018081833039F08E819F8121E01A
:101FA000FC01208380E044C00E94C30089838B81B0
:101FB0009C81FC018581882399F11A828D81882F6B
:101FC00090E08130910569F014C08B819C8160E0C4
:101FD00070E041E022E00E9415078A818F5F8A83CA
:101FE00001C000008B819C81FC018581882369F7F9
:101FF0000BC08B819C8160E070E041E022E00E9498
:1020000015078A818F5F8A8389810E94C6000E949A
:10201000540A8E819F812EE0FC0120838A8108C0B2
:1020200089810E94C6008E819F81FC01108280E020
:1020300027960FB6F894DEBF0FBECDBFCF91DF91CC
:102040000895DF93CF9300D0CDB7DEB79B838A830B
:1020500019828A819B81FC018081833011F081E0AB
:1020600037C00E94C30089838A819B81FC018581DE
:10207000882379F08A819B8160E070E041E020E074
:102080000E94150789810E94C6000E94540A80E0C0
:102090001FC08A819B81FC0183819481FFEF8F3F68
:1020A0009F0791F08A819B81FC01838194819C012F
:1020B0002F5F3F4F8A819B81FC0134832383898179
:1020C0000E94C60080E004C089810E94C60082E3AD
:1020D0000F900F900F90CF91DF910895DF93CF93E2
:1020E000CDB7DEB72A970FB6F894DEBF0FBECDBFCF
:1020F00098878F837A87698719828F819885FC01F9
:102100008081833011F081E03DC00E94C30089834B
:102110008F819885FC01258189859A85FC0124831E
:102120008F81988506969E838D8389859A850296F0
:102130009C838B831A8215C08D819E81FC01208136
:102140008B819C81FC0120838B819C8101969C83E7
:102150008B838D819E8101969E838D838A818F5F83
:102160008A838A81823040F38F819885FC012381A4
:10217000348189859A85FC013183208389810E947D
:10218000C60080E02A960FB6F894DEBF0FBECDBF22
:10219000CF91DF910895DF93CF93CDB7DEB7279727
:1021A0000FB6F894DEBF0FBECDBF9B838A837D83BD
:1021B0006C835F834E8319828A819B81FC018081BD
:1021C000833031F08E819F8121E0FC0120832CC07F
:1021D0000E94C30089838E819F81FC0110828A81C5
:1021E0009B81FC0183819481009741F08A819B81CE
:1021F0002C813D81FC013483238313C08A819B8120
:10220000FC018581882341F48A819B812C813D8159
:10221000FC013483238305C08E819F8129E4FC0166
:10222000208389810E94C60027960FB6F894DEBFEE
:102230000FBECDBFCF91DF910895AF92BF92CF92E5
:10224000DF92EF92FF920F931F93DF93CF93CDB75F
:10225000DEB72B970FB6F894DEBF0FBECDBF9E83BF
:102260008D8378876F835A8749872B8719820E94CD
:10227000C300898380917A08882329F089810E948C
:10228000C6008CE35EC08B85882F90E0880F991F75
:10229000825E934FFC0180819181009709F04DC0CF
:1022A0008B85882F90E0880F991F825E934F21E0E5
:1022B00030E0FC013183208389810E94C6008D813A
:1022C0009E814F81588529853A85BA01A90120E070
:1022D00030E00E942B029C838B832B813C818B8579
:1022E000B90140E050E020E030E0EE24FF24870117
:1022F000CC24DD24AA24BB240E94480B8A838A8133
:10230000882339F4809140058130A1F40E94540A59
:1023100012C00E94C30089838B85882F90E0880FAC
:10232000991F825E934FFC011182108289810E9465
:10233000C60001C000008A8104C089810E94C600D5
:1023400088E22B960FB6F894DEBF0FBECDBFCF91BB
:10235000DF911F910F91FF90EF90DF90CF90BF9092
:10236000AF9008958F929F92AF92BF92CF92DF92DB
:10237000EF92FF920F931F93DF93CF93CDB7DEB70A
:1023800065970FB6F894DEBF0FBECDBF9E838D83D9
:1023900078876F835A8749872B871D870C87FF862D
:1023A000EE86A88AB98ACA8ADB8A9D8A8C8A1982B3
:1023B0000E94C300898380917A08882329F089814B
:1023C0000E94C6008CE35EC08B85882F90E0880F4A
:1023D000991F825E934FFC0180819181009709F0E3
:1023E0004DC08B85882F90E0880F991F825E934F98
:1023F00021E030E0FC013183208389810E94C60006
:102400008D819E816F81788549855A852DA13EA158
:102410000E942B029C838B836B817C814E855F8520
:102420002C853D85E888F9880A891B89AC89BD8996
:10243000EDA1FEA18B856D015F010E94480B8A838F
:102440008A81882339F4809140058130A1F40E946B
:10245000540A12C00E94C30089838B85882F90E0A4
:10246000880F991F825E934FFC011182108289812F
:102470000E94C60001C000008A8104C089810E94B8
:10248000C60088E265960FB6F894DEBF0FBECDBFDA
:10249000CF91DF911F910F91FF90EF90DF90CF9040
:1024A000BF90AF909F908F900895DF93CF93CDB75B
:1024B000DEB729970FB6F894DEBF0FBECDBF8D8370
:1024C0007F836E8359874887198280917A08882391
:1024D00039F08885998521E1FC01208380E049C09D
:1024E0000E94C30089838D818F3F39F480917B08DE
:1024F00090917C08FC01808D8D838D81882F90E0E8
:10250000880F991F825E934FFC01808191819C838B
:102510008B838B819C81009751F489810E94C60036
:102520008885998523E4FC01208380E022C08B818B
:102530009C818130910551F489810E94C600888573
:10254000998523E4FC01208380E013C08B819C816A
:102550009C01215D3F4F8E819F81B9010E94D10A6C
:102560008A8389810E94C60088859985FC01108232
:102570008A8129960FB6F894DEBF0FBECDBFCF91EA
:10258000DF910895DF93CF93CDB7DEB729970FB6CC
:10259000F894DEBF0FBECDBF8D837F836E835987D6
:1025A0004887198280917A08882331F08885998537
:1025B00022E1FC01208354C00E94C30089838D81E5
:1025C0008F3F39F480917B0890917C08FC01808DCD
:1025D0008D838D81882F90E0880F991F825E934FA5
:1025E000FC01808191819B838A838A819B810097F2
:1025F00049F489810E94C6008885998523E4FC01FD
:1026000020832EC08A819B818130910549F4898184
:102610000E94C6008885998523E4FC01208320C0A0
:102620008E819F810E94060B8C838C81803148F0C3
:1026300089810E94C6008885998521E4FC01208358
:102640000FC08A819B818F962E813F81B9010E94A4
:10265000D10A89810E94C60088859985FC01108273
:1026600029960FB6F894DEBF0FBECDBFCF91DF9194
:102670000895DF93CF9300D00F92CDB7DEB78C8350
:1026800019820E94C30089838C81882F90E0880F73
:10269000991F825E934FFC01808191819B838A8385
:1026A0008A819B81009729F489810E94C60086E473
:1026B00067C08A819B818130910529F489810E94BC
:1026C000C60083E45DC08A819B81FC018689882FD6
:1026D00090E088709070009709F44EC08A819B81C9
:1026E000FC018689282F277F8A819B81FC01268B0C
:1026F0008A819B81FC0186898823B9F58A819B8127
:10270000FC0184899589009761F58A819B81FC0190
:10271000948D8091C607892B8093C6078A819B81FF
:10272000FC01828D882F90E02A813B81F901228D66
:10273000222F30E02953384FF90140812A813B8113
:10274000F901238D242B8953984FFC012083898123
:102750000E94C60080914005813059F40E94540ABD
:1027600009C089810E94C60005C089810E94C600F7
:1027700001C0000080E004C089810E94C60084E49A
:102780000F900F900F900F90CF91DF910895DF93EE
:10279000CF9300D000D0CDB7DEB78E8319820E94D0
:1027A000C30089838E818F3F51F480917B08909183
:1027B0007C08FC01808D8E8381E08D830DC080912B
:1027C0007B0890917C08FC01908D8E81981719F4FC
:1027D00081E08D8301C01D828E81882F90E0880F5B
:1027E000991F825E934FFC01808191819C838B8332
:1027F0008B819C81009729F489810E94C60088E41E
:102800004BC08B819C818130910529F489810E9484
:10281000C60083E441C08B819C81FC01828D8A8348
:102820008A81882F90E02A81222F30E02953384F67
:10283000F9012081422F2B813C81F901238D2095C4
:1028400024238953984FFC0120838A81882F90E0AC
:102850008953984FFC018081882359F48B819C8196
:10286000FC01848D982F90958091C60789238093D1
:10287000C6078B819C81FC018689282F28608B816B
:102880009C81FC01268B89810E94C6008D8181304C
:1028900011F40E94540A80E026960FB6F894DEBF29
:1028A0000FBECDBFCF91DF910895DF93CF9300D0BE
:1028B00000D0CDB7DEB78C837E836D8319820E94F2
:1028C000C30089838C818F3F39F480917B0890917C
:1028D0007C08FC01808D8C838C81882F90E0880F90
:1028E000991F825E934FFC01808191819B838A8333
:1028F0008A819B81009729F489810E94C60089E220
:1029000017C08A819B818130910529F489810E94B9
:10291000C60083E40DC08D819E812A813B81B9016F
:102920004FE350E00E94230A89810E94C60080E0A4
:1029300026960FB6F894DEBF0FBECDBFCF91DF91C4
:102940000895DF93CF9300D00F92CDB7DEB79C836D
:102950008B83198280917A08882309F04BC08B8180
:102960009C81009709F447C00E94C300898380912D
:102970007B0890917C08FC01828D8A838A81882F54
:1029800090E02A81222F30E02953384FF90120812D
:10299000422F20917B0830917C08F901238D2095EE
:1029A00024238953984FFC0120838A81882F90E04B
:1029B0008953984FFC018081882369F480917B08BA
:1029C00090917C08FC01848D982F90958091C6078A
:1029D00089238093C60780917B0890917C082B8186
:1029E0003C81FC01358B248B89810E94C6000E94AA
:1029F000540A01C000000F900F900F900F90CF91DC
:102A0000DF910895EF92FF920F931F93DF93CF937F
:102A1000CDB7DEB72B970FB6F894DEBF0FBECDBF94
:102A20008F83688749873B872A8780917A08882324
:102A300011F085E586C08F81882F90E0A0E0B0E09E
:102A400020E13EE040E050E0BC01CD010E94844026
:102A50007B018C018885882F90E0A0E0B0E02CE31A
:102A600030E040E050E0BC01CD010E948440DC0138
:102A7000CB01A8019701280F391F4A1F5B1F8985C9
:102A8000882F90E0A0E0B0E0820F931FA41FB51F35
:102A900024E630E040E050E0BC01CD010E948440DB
:102AA0007B018C018A859B85CC01A0E0B0E024E607
:102AB00030E040E050E0BC01CD010E948440DC01E8
:102AC000CB018C509E4FAF4FBF4F28EE33E040E01C
:102AD00050E0BC01CD010E94B640DA01C9018E0D63
:102AE0009F1DA01FB11F8B839C83AD83BE838B81F1
:102AF0009C81AD81BE81CD01AA27BB279A838983A2
:102B00008B819C81AD81BE81A070B0708B839C83D2
:102B1000AD83BE838B819C810E94A1140DC080E097
:102B200090E80E94A11480E090E80E94A11489819D
:102B30009A8101979A83898389819A81009779F78D
:102B400080E02B960FB6F894DEBF0FBECDBFCF91BD
:102B5000DF911F910F91FF90EF900895DF93CF9336
:102B600000D00F92CDB7DEB78C8319828C818A306A
:102B700010F08AE287C00E94C30089838C81882F6D
:102B800090E0880F991F825E934FFC0180819181B4
:102B90009B838A838A819B81009729F489810E9483
:102BA000C60083E46FC08A819B818130910529F43E
:102BB00089810E94C60083E465C08A819B81FC01F3
:102BC00084899589009729F489810E94C60080E54F
:102BD00059C08A819B81FC01158A148A8A819B8154
:102BE000FC018689882F90E087739070009781F0B0
:102BF0008A819B81FC018689282F287C8A819B8180
:102C0000FC01268B8A819B8121E0FC01278B04C07B
:102C10008A819B81FC01178A8A819B81FC018689BC
:102C2000882F90E088709070009741F58A819B8191
:102C3000FC01948D8091C607892B8093C6078A81F9
:102C40009B81FC01828D882F90E02A813B81F901D4
:102C5000228D222F30E02953384FF90140812A81FB
:102C60003B81F901238D242B8953984FFC0120834C
:102C700089810E94C6000E94540A03C089810E9473
:102C8000C60080E00F900F900F900F90CF91DF91D2
:102C90000895DF93CF9300D00F920F92CDB7DEB798
:102CA00019820E94C30089838091810890918208D3
:102CB000A0918308B09184088A839B83AC83BD83F1
:102CC00089810E94C6008A819B81AC81BD81BC0143
:102CD000CD010F900F900F900F900F90CF91DF913B
:102CE0000895DF93CF9300D00F920F92CDB7DEB748
:102CF0006A837B838C839D8319820E94C3008983AE
:102D00008A819B81AC81BD818093810890938208E8
:102D1000A0938308B093840889810E94C6000F9015
:102D20000F900F900F900F90CF91DF9108958F9299
:102D30009F92AF92BF92CF92DF92EF92FF920F934A
:102D4000DF93CF93CDB7DEB764970FB6F894DEBFAD
:102D50000FBECDBF6C837D838E839F832887398789
:102D60004A875B870C87FE86ED86D88ACF86BA8A2B
:102D7000A98A9C8A8B8A80917A08882341F08B8962
:102D80009C892BE8FC01208380E090E072C00E94C7
:102D9000801D0E94811A9B838A838A819B81009770
:102DA00051F40E94951D8B899C8926E8FC012083A3
:102DB00080E090E05EC08A819B8121E0FC0126A337
:102DC0002A813B818C819D81AE81BF81F9018587FC
:102DD0009687A787B08B2A813B8188859985AA85AC
:102DE000BB85F901818B928BA38BB48B8A819B81EC
:102DF0002C85FC0125A38A819B812D853E85FC01C4
:102E0000328321838A819B812F853889FC01348319
:102E1000238389899A89009721F189899A890E9457
:102E2000060B89838981803148F48A819B8145968C
:102E300029893A89B9010E94D10A13C08A819B81EC
:102E400023E2FC01258B8A819B81FC01168A8B89F8
:102E50009C892CE8FC0120830E94951D8A819B811E
:102E600008C00E94951D8B899C89FC0110828A8173
:102E70009B8164960FB6F894DEBF0FBECDBFCF9195
:102E8000DF910F91FF90EF90DF90CF90BF90AF90C8
:102E90009F908F900895DF93CF9300D00F92CDB77E
:102EA000DEB79A8389837C836B8389819A81FC0155
:102EB0008081843639F08B819C8129E8FC01208354
:102EC00080E04CC080917A08882339F08B819C8106
:102ED0002BE8FC01208380E041C00E94801D898195
:102EE0009A81FC0186A1882F90E08330910534F40B
:102EF00081309105B4F4009701F128C08330910529
:102F000029F589819A810E94F61C89819A810E9403
:102F1000C21A0E94951D8B819C81FC01108281E068
:102F20001DC089819A810E94C21A0E94951D8B81C1
:102F30009C81FC01108281E011C00E94951D8B8153
:102F40009C8127E8FC01208380E008C00E94951D39
:102F50008B819C812DE8FC01208380E00F900F90F5
:102F60000F900F90CF91DF910895DF93CF93CDB75E
:102F7000DEB727970FB6F894DEBF0FBECDBF9B8399
:102F80008A837D836C835F834E838A819B81FC016E
:102F90008081843639F08E819F8129E8FC0120836D
:102FA00080E03EC080917A08882339F08E819F812D
:102FB00021E1FC01208380E033C00E94801D8A81D2
:102FC0009B81FC0186A1882F90E00097C1F0992396
:102FD000FCF084309105E4F48A819B819C012B5E96
:102FE0003F4F8C819D81B9010E94D10A89830E9443
:102FF000951D8E819F81FC011082898111C00E94E4
:10300000951D8E819F8127E8FC01208380E008C008
:103010000E94951D8E819F812DE8FC01208380E018
:1030200027960FB6F894DEBF0FBECDBFCF91DF91CC
:103030000895EF92FF920F931F93DF93CF93CDB735
:10304000DEB728970FB6F894DEBF0FBECDBF9E83C4
:103050008D8378876F838D819E81FC01808184368A
:1030600051F08F81988529E8FC01208380E090E071
:10307000A0E0B0E0B8C080917A08882351F08F8139
:1030800098852BE8FC01208380E090E0A0E0B0E090
:10309000AAC00E94801D8D819E81FC0186A1882F7F
:1030A00090E081309105A9F18230910524F40097D8
:1030B00009F482C08DC08230910509F472C083305A
:1030C000910509F085C08D819E81FC0121853285A5
:1030D0004385548580917D0890917E08A0917F085A
:1030E000B091800879018A01E81AF90A0A0B1B0BD2
:1030F000D801C70189839A83AB83BC830E94951D45
:103100008F819885FC01108289819A81AB81BC8175
:103110006AC08D819E81FC0185A1882F90E082305C
:10312000910549F58D819E81FC0185859685A78550
:10313000B0890097A105B10561F48D819E81FC01E4
:1031400081899289A389B48989839A83AB83BC835B
:103150000BC08D819E81FC0185859685A785B089F0
:1031600089839A83AB83BC830E94951D8F81988548
:10317000FC01108211C08D819E81FC0185859685A0
:10318000A785B08989839A83AB83BC830E94951DF0
:103190008F819885FC01108289819A81AB81BC81E5
:1031A00022C00E94951D8F819885FC01108280E0CD
:1031B00090E0A0E0B0E017C00E94951D8F81988537
:1031C00027E8FC01208380E090E0A0E0B0E00BC0A5
:1031D0000E94951D8F8198852DE8FC01208380E059
:1031E00090E0A0E0B0E0BC01CD0128960FB6F894C5
:1031F000DEBF0FBECDBFCF91DF911F910F91FF902A
:10320000EF900895DF93CF9300D00F920F92CDB738
:10321000DEB79B838A837D836C838A819B81FC01DB
:103220008081843639F08C819D8129E8FC012083DE
:1032300080E026C080917A08882339F08C819D81B6
:103240002BE8FC01208380E01BC00E94801D8A8146
:103250009B81FC0186A189838981882F90E000965B
:103260008430910528F48C819D81FC01108205C079
:103270008C819D812DE8FC0120830E94951D898110
:103280000F900F900F900F900F90CF91DF910895B6
:10329000DF93CF9300D00F92CDB7DEB79A838983A7
:1032A0007C836B8389819A81FC018081843639F02B
:1032B0008B819C8129E8FC01208380E04EC08091B5
:1032C0007A08882339F08B819C812BE8FC012083CC
:1032D00080E043C00E94801D89819A81FC0186A103
:1032E000882F90E08330910534F481309105BCF44F
:1032F000009711F12AC08330910539F589819A81AF
:103300000E94F61C89819A8160E00E941F1C0E9425
:10331000951D8B819C81FC01108281E01EC08981FA
:103320009A8160E00E941F1C0E94951D8B819C81E8
:10333000FC01108281E011C00E94951D8B819C814F
:1033400027E8FC01208380E008C00E94951D8B8146
:103350009C812DE8FC01208380E00F900F900F905E
:103360000F90CF91DF910895DF93CF93CDB7DEB764
:1033700029970FB6F894DEBF0FBECDBF9C838B8319
:103380006D835F834E83398728878B819C81FC0105
:103390008081843639F08885998529E8FC0120836D
:1033A00080E095C080917A08882339F088859985D6
:1033B0002BE8FC01208380E08AC00E94801D8B8165
:1033C0009C81FC0186A1882F90E08330910544F414
:1033D000813091050CF061C0009709F467C06FC09F
:1033E0008330910509F06BC08B819C810E94F61C93
:1033F00088859985FC0110828D81882F90E083302B
:10340000910539F08430910511F1009709F440C01D
:1034100039C08B819C81FC01818192819A8389834F
:1034200089819A81009769F08B819C81FC0143819D
:1034300054818B819C8129813A81BA01F9011995C6
:1034400028C0888599852FE8FC01208322C08B81C4
:103450009C81FC01818192819A83898389819A81EF
:10346000009751F08B819C814E815F8129813A8147
:10347000BA01F90119950DC0888599852FE8FC01DD
:10348000208307C08885998524E8FC01208301C03A
:1034900000000E94951D81E01AC00E94951D88853C
:1034A00099852EE8FC01208381E011C00E94951DC2
:1034B0008885998527E8FC01208380E008C00E9468
:1034C000951D888599852DE8FC01208380E029964B
:1034D0000FB6F894DEBF0FBECDBFCF91DF91089538
:1034E000DF93CF930F92CDB7DEB780913E059091D9
:1034F0003F050E942110898389810F90CF91DF9130
:103500000895DF93CF930F920F92CDB7DEB78091DE
:103510001B0590911C05009719F480E090E02DC0E8
:1035200080911B0590911C059A83898389819A81DA
:10353000FC018581968190931C0580931B058981F0
:103540009A81FC011682158289819A81FC0110867C
:103550001782809145059091460501969093460506
:10356000809345058091BF079091C0070197909384
:10357000C0078093BF0789819A810F900F90CF91E8
:10358000DF910895DF93CF930F920F92CDB7DEB7FF
:103590009A83898389819A81FC0116A289819A8103
:1035A000FC0115A289819A81FC01118A128A138A71
:1035B000148A89819A81FC011186128613861486E9
:1035C00089819A81FC011282118289819A81FC0190
:1035D0001482138289819A812FE3FC01258B8981D2
:1035E0009A81FC01168A89819A81FC0110861782D2
:1035F00020911B0530911C0589819A81FC0136833D
:10360000258389819A8190931C0580931B05809165
:103610004505909146050197909346058093450591
:103620008091BF079091C00701969093C007809347
:10363000BF070F900F90CF91DF910895DF93CF9345
:10364000CDB7DEB727970FB6F894DEBF0FBECDBF5C
:1036500088E495E060E772E00E94FF098DE195E063
:1036600060E270E00E94FF0988E495E09C838B8310
:103670008FE695E09A8389831E821D8228C08B8104
:103680009C8124E6FC0120838B819C81FC0116A295
:103690008B819C8129813A81FC01368325838B8132
:1036A0009C812FE3FC01258B8B819C81FC01168A78
:1036B0008B819C8187969C838B8389819A81879655
:1036C0009A8389838D819E8101969E838D838D81CE
:1036D0009E818F30910598F28B819C8124E6FC01BC
:1036E00020838B819C81FC0116A28B819C81FC0133
:1036F000168215828B819C812FE3FC01258B8B81A7
:103700009C81FC01168A10927D0810927E0810920E
:103710007F0810928008109246051092450580E1BE
:1037200090E09093C0078093BF0788E495E0909362
:103730001C0580931B0581E090E00E94CC0D9093C6
:1037400086088093850880E090E00E94CC0D9093DD
:103750003F0580933E0580918508909186084EE74D
:1037600053E09E01295F3F4FBA01A9010E94F7046F
:1037700080913E0590913F0549E853E09E01295F05
:103780003F4FBA01A9010E94F7040E94D01B27965F
:103790000FB6F894DEBF0FBECDBFCF91DF91089575
:1037A0008F929F92AF92BF92CF92DF92EF92FF9251
:1037B0000F931F93DF93CF930F92CDB7DEB70F9286
:1037C0000F924DB75EB74F5F5F4F82EA9DE127E7EB
:1037D00038E0E9ECF7E063E070E0DA016D937C93A8
:1037E00060E070E0A90124E00DEF1FEF7F010F2ED4
:1037F000FFEAAF2EF0E0BF2EF0E0CF2EF0E0DF2E9C
:10380000F02D882499240E94B2110F900F9023E983
:1038100033E084E0B9019E012F5F3F4FA9010E9470
:10382000C2120F90CF91DF911F910F91FF90EF90F7
:10383000DF90CF90BF90AF909F908F900895DF93CF
:10384000CF93CDB7DEB729970FB6F894DEBF0FBE82
:10385000CDBF98878F8369878F81988523E0FC018E
:1038600026A389858130D9F48F819885FC0121892F
:1038700032894389548980917D0890917E08A09176
:103880007F08B0918008820F931FA41FB51F2F815E
:103890003885F90181879287A387B48740C08F81DB
:1038A0009885FC0185859685A785B0890097A10537
:1038B000B105D9F48F819885FC012189328943892A
:1038C000548980917D0890917E08A0917F08B091E5
:1038D0008008820F931FA41FB51F2F813885F9011F
:1038E00081879287A387B4871AC08F819885FC014E
:1038F000258536854785508980917D0890917E0881
:10390000A0917F08B0918008820F931FA41FB51F5C
:103910002F813885F90181879287A387B4878F81AA
:103920009885FC0181859285A385B4858770907008
:103930009A83898389819A81880F991F880F991F9B
:10394000835E9A4F9C838B838B819C81FC01808159
:1039500091810097A1F48B819C812F813885FC0196
:10396000318320838F819885FC01168215828B819B
:103970009C8121E030E0FC013383228329C08B81CC
:103980009C81FC01808191819E838D838B819C81B0
:103990002F813885FC01318320838F8198852D818B
:1039A0003E81FC01368325838D819E812F81388560
:1039B000FC01308727838B819C81FC01828193816C
:1039C0009C012F5F3F4F8B819C81FC0133832283BD
:1039D0008F819885FC011086178229960FB6F8947E
:1039E000DEBF0FBECDBFCF91DF910895DF93CF93A0
:1039F000CDB7DEB72A970FB6F894DEBF0FBECDBFA6
:103A00009A87898789859A85FC0181859285A38516
:103A1000B485877090709A83898389819A81880F91
:103A2000991F880F991F835E9A4F9C838B838B818C
:103A30009C81FC012081318189859A85281739076D
:103A4000C1F489859A85FC018581968198878F8349
:103A50008B819C812F813885FC01318320838F816C
:103A60009885009739F18F819885FC01108617821F
:103A700022C089859A85FC018781908598878F83EC
:103A800089859A85FC01858196819E838D838F81AE
:103A900098852D813E81FC01368325838D819E8111
:103AA000009749F08D819E812F813885FC013087F8
:103AB000278301C0000089859A8521E0FC0126A3A7
:103AC00089859A85FC011682158289859A85FC0173
:103AD000108617828B819C81FC01828193819C01DD
:103AE000215030408B819C81FC01338322832A96B4
:103AF0000FB6F894DEBF0FBECDBFCF91DF91089512
:103B0000DF93CF930F92CDB7DEB780918508909168
:103B1000860860E070E09E012F5F3F4FA9010E9480
:103B2000F90E0F90CF91DF910895DF93CF93CDB72A
:103B3000DEB780918508909186080E942110CF9170
:103B4000DF910895DF93CF93CDB7DEB72D970FB6F2
:103B5000F894DEBF0FBECDBF9D878C8780913E0558
:103B600090913F059E01255F3F4F60E070E0A90105
:103B70000E94F90E0E94801D80917D0890917E0820
:103B8000A0917F08B09180080196A11DB11D80937E
:103B90007D0890937E08A0937F08B0938008809161
:103BA0007D0890917E08A0917F08B0918008877071
:103BB00090709A83898389819A81880F991F880FD1
:103BC000991F835E9A4F9C838B838B819C81FC0120
:103BD000808191819A8789874BC089859A85FC016C
:103BE0008581968198878F8389859A85FC012185B7
:103BF00032854385548580917D0890917E08A091FF
:103C00007F08B0918008281739074A075B0761F5DC
:103C100089859A85FC01818192819E838D838D8126
:103C20009E81009761F089859A85FC0143815481CA
:103C300089859A852D813E81BA01F9011995898579
:103C40009A850E94F61C89859A85FC0185A182309F
:103C500031F489859A8561E00E941F1C05C0898521
:103C60009A8522E0FC0126A38F8198859A8789870F
:103C700089859A85009709F0B0CF0E94951D6ECF77
:103C8000DF93CF93CDB7DEB728970FB6F894DEBF9A
:103C90000FBECDBF9C838B837E836D8358874F83FC
:103CA000198280917A08882339F08F81988521E1E3
:103CB000FC01208380E027C08B819C81FC018081F6
:103CC000882F90E0019784309105B8F40E94C300DA
:103CD00089838B819C819C01285F3F4F8D819E81D0
:103CE000B9010E9466248A8389810E94C6008F815F
:103CF0009885FC0110828A8106C08F81988521E019
:103D0000FC01208380E028960FB6F894DEBF0FBE3A
:103D1000CDBFCF91DF910895DF93CF93CDB7DEB7BD
:103D200028970FB6F894DEBF0FBECDBF9C838B8360
:103D30007E836D8358874F83198280917A08882308
:103D400031F08F81988522E1FC01208334C08B8182
:103D50009C81FC018081882F90E00197843091053F
:103D600060F40E94C30089838D819E810E949B2400
:103D70008A838A81803138F40FC08F81988521E051
:103D8000FC01208318C089810E94C6008F8198851C
:103D90002BE0FC0120830FC08B819C8108962D8134
:103DA0003E81B9010E94662489810E94C6008F81EC
:103DB0009885FC01108228960FB6F894DEBF0FBEDE
:103DC000CDBFCF91DF910895DF93CF93CDB7DEB70D
:103DD0000E94E5010E9493220E94BA220E9437238A
:103DE0000E9433220E94E8220E94C4330E94F00104
:103DF0000E94EC03CF91DF910895DF93CF93CDB76D
:103E0000DEB780914005813049F480917A088F3F78
:103E100029F080917A088F5F80937A08CF91DF91A3
:103E20000895DF93CF930F92CDB7DEB719828091BB
:103E30004005813009F055C00E94C30089838091FC
:103E40007A08882329F080917A08815080937A0833
:103E500080917A08882309F041C080913D0588232C
:103E6000E9F50E943F24909147058091B807981783
:103E7000A9F180914705882F90E0880F991F825EF5
:103E8000934FFC01808191819093C5078093C40773
:103E90002091C4073091C507F901858D968DA78DB6
:103EA000B0A10196A11DB11DF901858F968FA78F35
:103EB000B0A38091BB079091BC07A091BD07B091C2
:103EC000BE070196A11DB11D8093BB079093BC074F
:103ED000A093BD07B093BE070E94870189810E940D
:103EE000C6000F90CF91DF910895DF93CF930F928B
:103EF000CDB7DEB7198280914005813099F40E94D8
:103F0000C300898380917A08882349F480913D0514
:103F10008F3F29F080913D058F5F80933D0589811A
:103F20000E94C6000F90CF91DF910895DF93CF9349
:103F30000F92CDB7DEB7198280914005813029F507
:103F40000E94C300898380913D058823D9F0809128
:103F50003D05815080933D0580913D05882371F496
:103F600080917A08882331F489810E94C6000E94DA
:103F7000E9230BC089810E94C60007C089810E9485
:103F8000C60003C089810E94C6000F90CF91DF91C7
:103F90000895DF93CF93CDB7DEB780914005882396
:103FA000F9F40E943F24809147058093B8078091DF
:103FB0004705882F90E0880F991F825E934FFC0180
:103FC000808191819093C5078093C4078091C40735
:103FD0009091C50790937C0880937B080E94C8004D
:103FE000CF91DF910895DF93CF9300D0CDB7DEB7A7
:103FF00019820E94CD030E94C300898380918108A9
:1040000090918208A0918308B09184080196A11D27
:10401000B11D8093810890938208A0938308B09388
:10402000840889810E94C60080914005813009F092
:1040300082C08091B9079091BA079B838A8374C02C
:104040000E94C30089838A819B81FC0184899589B0
:10405000009709F45FC08A819B81FC01848995895E
:104060009C01215030408A819B81FC01358B248B3F
:104070008A819B81FC0184899589009709F04AC057
:104080008A819B81FC018689882F90E087739070DC
:10409000009781F08A819B81FC018689282F287CEA
:1040A0008A819B81FC01268B8A819B8121E0FC0116
:1040B000278B04C08A819B81FC01178A8A819B819E
:1040C000FC018689882F90E088709070009711F528
:1040D0008A819B81FC01948D8091C607892B8093F6
:1040E000C6078A819B81FC01828D882F90E02A81FE
:1040F0003B81F901228D222F30E02953384FF901FD
:1041000040812A813B81F901238D242B8953984FCB
:10411000FC0120838A819B81FC01868597859B8396
:104120008A8389810E94C6008A819B81FC01808DDF
:104130008A3009F085CF0F900F900F90CF91DF91CB
:104140000895DF93CF93CDB7DEB78EE191E0CF91A5
:10415000DF910895DF93CF93CDB7DEB72B970FB6DE
:10416000F894DEBF0FBECDBF9F838E8379876887AB
:104170004A872B878E819F81FC018581882F90E063
:1041800080569C4FFC0180818B838B81882F90E02F
:104190002E813F81820F931F0696FC018081882F1C
:1041A00090E080569C4FFC0180818A838B81982F00
:1041B000990F990F990F8A81890F89838981882F97
:1041C00090E0880F991F825E934FFC01808191815E
:1041D0009D838C838C819D81FC01158A148A8C813E
:1041E0009D81FC018689982F8A8580958923282FB7
:1041F0008C819D81FC01268B8C819D812B85FC010E
:10420000278B8C819D81FC018689882F90E08870A6
:1042100090700097E1F48C819D81FC01948D8091D8
:10422000C607892B8093C6078B81882F90E02B814E
:10423000222F30E02953384FF90140812C813D81F4
:10424000F901238D242B8953984FFC0120838C8105
:104250009D812E813F81B9010E94B72189812B96D2
:104260000FB6F894DEBF0FBECDBFCF91DF9108959A
:10427000DF93CF9300D0CDB7DEB79B838A83809145
:104280007B0890917C082A813B81FC01338B228B37
:1042900080917B0890917C08FC01828D882F90E0B2
:1042A00020917B0830917C08F901228D222F30E08B
:1042B0004A815B81240F351F2A5F3F4FF9014081FE
:1042C00020917B0830917C08F901238D422B2A81B3
:1042D0003B81820F931F0696FC0140838A819B815C
:1042E000FC01258180917B0890917C08FC01848DE4
:1042F000282B8A819B81FC01258380917B089091EA
:104300007C08FC01828D89838981882F90E0298136
:10431000222F30E02953384FF9012081422F20917C
:104320007B0830917C08F901238D20952423895343
:10433000984FFC0120838981882F90E08953984F02
:10434000FC018081882369F480917B0890917C082E
:10435000FC01848D982F90958091C60789238093C6
:10436000C6070F900F900F90CF91DF910895DF93C4
:10437000CF9300D00F920F92CDB7DEB79B838A8385
:104380007D836C838A819B81FC01828D89838981F5
:10439000882F90E02981222F30E04C815D81240F0D
:1043A000351F2A5F3F4FF9012081422F2A813B812F
:1043B000F901238D20952423422F2C813D81820FEA
:1043C000931F0696FC0140838981882F90E02C8101
:1043D0003D81820F931F0696FC018081882381F422
:1043E0008C819D81FC018581282F8A819B81FC0124
:1043F000848D80958223282F8C819D81FC012583CB
:104400000F900F900F900F900F90CF91DF91089524
:10441000DF93CF9300D00F920F92CDB7DEB79D837D
:104420008C838C819D81FC0115828C819D810696F7
:104430009B838A8319820CC08A819B81FC01108234
:104440008A819B8101969B838A8389818F5F89837F
:104450008981823088F30F900F900F900F900F900A
:10446000CF91DF910895DF93CF9300D000D0CDB7E7
:10447000DEB786E399E060EF70E00E94942386E364
:1044800099E09C838B838EE499E09A8389831E82D2
:104490001D8223C08B819C81FC0110828B819C81B9
:1044A00029813A81FC01328321838B819C812FE316
:1044B000FC0120878B819C81FC0111868B819C8172
:1044C00048969C838B8389819A8148969A838983B5
:1044D0008D819E8101969E838D838D819E81893001
:1044E0009105C0F28B819C81FC0110828B819C81A3
:1044F000FC01128211828B819C812FE3FC012087B9
:104500008B819C81FC01118686E399E09093790868
:104510008093780826960FB6F894DEBF0FBECDBF05
:10452000CF91DF910895DF93CF93CDB7DEB710928F
:1045300081081092820810928308109284081092C9
:104540007A0810923D051092C30710924005109210
:10455000BB071092BC071092BD071092BE071092C5
:104560004105109242051092430510924405CF91E7
:10457000DF910895DF93CF9300D0CDB7DEB71092CF
:10458000C60787EC97E09A8389831B820CC08981D8
:104590009A81FC01108289819A8101969A8389838C
:1045A0008B818F5F8B838B81823088F31092B80769
:1045B000109247051092C5071092C40710927C080C
:1045C00010927B080F900F900F90CF91DF9108957C
:1045D0008F929F92AF92BF92CF92DF92EF92FF9213
:1045E0000F931F93DF93CF930F92CDB7DEB70F9248
:1045F0000F924DB75EB74F5F5F4F89EB94E225E3B3
:1046000039E0E7E8F8E063E070E0DA016D937C936D
:1046100060E070E0A9012AE00FEF1FEF7F010F2E8D
:10462000FFEAAF2EF0E0BF2EF0E0CF2EF0E0DF2E5D
:10463000F02D882499240E94582A0F900F9020EA88
:1046400034E08AE0B9019E012F5F3F4FA9010E942B
:10465000682B0F90CF91DF911F910F91FF90EF90FA
:10466000DF90CF90BF90AF909F908F900895DF9391
:10467000CF9300D00F920F92CDB7DEB786E29AE0CB
:1046800068EF71E00E9494238EE19CE066E170E0A7
:104690000E94942386E29AE09C838B8385E69AE0CD
:1046A0009A8389831D821DC08B819C8129813A81D7
:1046B000FC01378726878B819C812FE3FC0127A78C
:1046C0008B819C81FC0110AA8B819C81CF969C835D
:1046D0008B8389819A81CF969A8389838D818F5F1D
:1046E0008D838D81873000F38B819C81FC0117863F
:1046F00016868B819C812FE3FC0127A78B819C81EF
:10470000FC0110AA1092BA071092B90786E29AE04B
:104710009093C2078093C1070F900F900F900F9056
:104720000F90CF91DF910895DF93CF9300D00F9238
:10473000CDB7DEB79A8389837C836B830EC0898172
:104740009A81FC01108289819A8101969A838983DA
:104750008B819C8101979C838B838B819C810097AB
:1047600071F70F900F900F900F90CF91DF910895F8
:10477000DF93CF9300D000D0CDB7DEB79A83898383
:104780007C836B835E834D8317C08B819C81FC018E
:10479000208189819A81FC01208389819A810196F7
:1047A0009A8389838B819C8101969C838B838D81E5
:1047B0009E8101979E838D838D819E81009729F72D
:1047C00026960FB6F894DEBF0FBECDBFCF91DF9116
:1047D0000895DF93CF930F92CDB7DEB719820E9471
:1047E000C300898380917A08882309F041C08091B1
:1047F0003D058823E9F50E943F249091470580916B
:10480000B8079817A9F180914705882F90E0880F85
:10481000991F825E934FFC01808191819093C5071F
:104820008093C4072091C4073091C507F901858D95
:10483000968DA78DB0A10196A11DB11DF901858F9F
:10484000968FA78FB0A38091BB079091BC07A091D2
:10485000BD07B091BE070196A11DB11D8093BB0796
:104860009093BC07A093BD07B093BE070E94FD00C4
:1048700089810E94C6000F90CF91DF910895DF9348
:10488000CF930F92CDB7DEB78091C607882F90E007
:1048900080569C4FFC01808189838981282F220FBB
:1048A000220F220F8981882F90E08953984FFC01B5
:1048B0008081882F90E080569C4FFC018081820F80
:1048C000809347050F90CF91DF910895DF93CF93A9
:1048D00000D00F920F92CDB7DEB79B838A837D8382
:1048E0006C83198215C08C819D81FC0120818A8195
:1048F0009B81FC0120838A819B8101969B838A8313
:104900008C819D8101969D838C8389818F5F8983B2
:104910008C819D81FC018081882329F78A819B817C
:10492000FC01108289810F900F900F900F900F90D3
:10493000CF91DF910895DF93CF9300D0CDB7DEB74D
:104940009B838A83198208C08A819B8101969B83FD
:104950008A8389818F5F89838A819B81FC01808121
:10496000882391F789810F900F900F90CF91DF915D
:104970000895DF93CF9300D0CDB7DEB79B838A83B2
:1049800019820E94C300898380914105909142055C
:10499000A0914305B09144050196A11DB11D8093DE
:1049A000410590934205A0934305B0934405898146
:1049B0000E94C6000E941902E4CFAF92BF92CF922C
:1049C000DF92EF92FF920F931F93DF93CF93CDB7B8
:1049D000DEB762970FB6F894DEBF0FBECDBF8C83F3
:1049E0007E836D8358874F833A872987EB86FC86C1
:1049F0000D871E87D88ACF86BA8AA98A19820E9413
:104A0000C30089838091C1079091C2079B838A83E9
:104A10008A819B81009709F415C18A819B81FC01E1
:104A2000868597859093C2078093C10789810E94EC
:104A3000C6008A819B812D813E81FC0131832083C8
:104A40008A819B812C81FC01208F8A819B81FC01C2
:104A5000168A8A819B81FC01178A8A819B81FC01CD
:104A6000158A148A8A819B812F853889FC013383BA
:104A700022832A813B818B859C85AD85BE85F9018A
:104A800086839783A087B1878A819B812F81388510
:104A9000FC01358324838A819B8129893A89FC0121
:104AA000338722878A819B8129853A85FC01358756
:104AB00024878C81282F2695269526958A819B818F
:104AC000FC01228F8C81282F27708A819B81FC0119
:104AD000218F8A819B81FC01828D282F30E081E02B
:104AE00090E002C0880F991F2A95E2F7282F8A814B
:104AF0009B81FC01248F8A819B81FC01818D282F61
:104B000030E081E090E002C0880F991F2A95E2F71B
:104B1000282F8A819B81FC01238F8A819B81FC0144
:104B2000138A128A8A819B81FC01158E168E178E3C
:104B300010A28A819B81FC0115A216A217A210A6C1
:104B40008A819B81FC0111A212A213A214A28A8164
:104B50009B81FC0112A611A68A819B81FC0113A6F0
:104B600014A615A616A68A819B812FE3FC0127A710
:104B70008A819B81FC0110AA8A819B810E94BC03CF
:104B80008A819B810E94F7010E94C30089838C81E6
:104B9000882F90E0880F991F825E934F2A813B8176
:104BA000FC01318320832091B9073091BA078A81B3
:104BB0009B81FC01378726878A819B81FC01118AB2
:104BC000108A8091B9079091BA07009749F08091B7
:104BD000B9079091BA072A813B81FC01318B208B68
:104BE0008A819B819093BA078093B9078A819B81C0
:104BF000FC01948D8091C607892B8093C6078A811A
:104C00009B81FC01828D882F90E02A813B81F901F4
:104C1000228D222F30E02953384FF90140812A811B
:104C20003B81F901238D242B8953984FFC0120836C
:104C30008091C3078F5F8093C30789810E94C6005C
:104C400080E004C089810E94C60082E462960FB6AB
:104C5000F894DEBF0FBECDBFCF91DF911F910F91B2
:104C6000FF90EF90DF90CF90BF90AF900895DF93CB
:104C7000CF9300D00F920F92CDB7DEB79D838C8378
:104C800019828C819D81FC018081833019F080E044
:104C900090E020C00E94C30089838C819D81FC012B
:104CA000838194819B838A838A819B81009769F0A9
:104CB0008C819D81FC01838194819C012150304035
:104CC0008C819D81FC013483238389810E94C600ED
:104CD0008A819B810F900F900F900F900F90CF9132
:104CE000DF910895DF93CF9300D00F920F92CDB74D
:104CF000DEB79D838C83198280917A08882319F00E
:104D000080E090E041C00E94C300898380917808D0
:104D1000909179089B838A83809178089091790893
:104D2000009759F08091780890917908FC01818171
:104D30009281909379088093780889810E94C600B7
:104D40008A819B810097F1F08A819B8123E0FC019D
:104D500020838A819B812C813D81FC0134832383C4
:104D60008A819B81FC01128211828A819B812FE3BF
:104D7000FC0120878A819B81FC0111868A819B81AD
:104D80000E9408228A819B810F900F900F900F90B4
:104D90000F90CF91DF910895DF93CF93CDB7DEB71A
:104DA00029970FB6F894DEBF0FBECDBF9E838D83CB
:104DB0006F835987488719828D819E81FC0180818C
:104DC000833041F08885998521E0FC0120838D8125
:104DD0009E81ACC080917A08882341F088859985AE
:104DE0002FE0FC0120838D819E81A0C00E94C30022
:104DF00089838D819E81FC018581882319F081E062
:104E00008C8301C01C828F81882F90E0009729F04D
:104E10008130910509F445C07BC08C81882359F508
:104E20008D819E812FE3FC0120878D819E81FC0175
:104E300011868D819E81FC0110822091780830912D
:104E400079088D819E81FC01328321838D819E8131
:104E5000FC01148213828D819E8190937908809346
:104E6000780889810E94C60088859985FC01108296
:104E70001B821A8259C089810E94C6008885998543
:104E800029E4FC0120838D819E819B838A834CC011
:104E90008D819E8160E070E041E020E00E94AA20C8
:104EA00001C000008D819E81FC018581882381F7EE
:104EB0008D819E812FE3FC0120878D819E81FC01E5
:104EC00011868D819E81FC0110822091780830919D
:104ED00079088D819E81FC01328321838D819E81A1
:104EE000FC01148213828D819E81909379088093B6
:104EF000780889810E94C6008C81813011F40E945B
:104F0000E92388859985FC0110821B821A820CC0D6
:104F100089810E94C6008885998527E0FC0120834D
:104F20008D819E819B838A838A819B8129960FB67E
:104F3000F894DEBF0FBECDBFCF91DF910895DF9310
:104F4000CF93CDB7DEB727970FB6F894DEBF0FBE6D
:104F5000CDBF9B838A837D836C835F834E8319825D
:104F60008A819B81FC018081833031F08E819F8119
:104F700021E0FC01208398C080917A08882331F0D9
:104F80008E819F8122E0FC0120838EC080913D05AF
:104F9000882331F08E819F812DE0FC01208384C025
:104FA0000E94C30089838A819B81FC018381948153
:104FB0000097A9F08A819B81FC01838194819C01E7
:104FC000215030408A819B81FC0134832383898175
:104FD0000E94C6008E819F81FC01108265C0809175
:104FE0007B0890917C0820917B0830917C08F90126
:104FF00026892160FC01268B80917B0890917C089A
:10500000FC01178A80917B0890917C082C813D815E
:10501000FC01358B248B8A819B810E9438218981F8
:105020000E94C6000E94E9230E94C30089838091E8
:105030007B0890917C08FC018789882F90E000977D
:1050400021F08230910531F00BC08E819F81FC01EF
:10505000108214C08E819F812EE0FC0120830EC03F
:1050600080917B0890917C082A813B81B9010E9444
:10507000B7218E819F812AE0FC01208380917B08EB
:1050800090917C08FC01168A80917B0890917C08A5
:10509000FC01178A80917B0890917C08FC01138A9F
:1050A000128A89810E94C60027960FB6F894DEBF47
:1050B0000FBECDBFCF91DF910895DF93CF93CDB7D2
:1050C000DEB727970FB6F894DEBF0FBECDBF9C8327
:1050D0008B836D835F834E8319828B819C81FC015E
:1050E0008081833039F08E819F8121E0FC01208313
:1050F00080E044C00E94C30089838B819C81FC01B5
:105100008581882399F11A828D81882F90E08130E2
:10511000910569F014C08B819C8160E070E041E0F2
:1051200022E00E94AA208A818F5F8A8301C000004A
:105130008B819C81FC018581882369F70BC08B8161
:105140009C8160E070E041E022E00E94AA208A8118
:105150008F5F8A8389810E94C6000E94E9238E8125
:105160009F812EE0FC0120838A8108C089810E94F2
:10517000C6008E819F81FC01108280E027960FB6C9
:10518000F894DEBF0FBECDBFCF91DF910895DF93BE
:10519000CF9300D0CDB7DEB79B838A8319828A81F3
:1051A0009B81FC018081833011F081E037C00E9437
:1051B000C30089838A819B81FC018581882379F0E2
:1051C0008A819B8160E070E041E020E00E94AA209B
:1051D00089810E94C6000E94E92380E01FC08A8165
:1051E0009B81FC0183819481FFEF8F3F9F0791F0AA
:1051F0008A819B81FC01838194819C012F5F3F4FB9
:105200008A819B81FC013483238389810E94C600AB
:1052100080E004C089810E94C60082E30F900F9055
:105220000F90CF91DF910895DF93CF93CDB7DEB785
:105230002A970FB6F894DEBF0FBECDBF98878F8335
:105240007A87698719828F819885FC0180818330F4
:1052500011F081E03DC00E94C30089838F81988551
:10526000FC01258189859A85FC0124838F8198859D
:1052700006969E838D8389859A8502969C838B836F
:105280001A8215C08D819E81FC0120818B819C81B9
:10529000FC0120838B819C8101969C838B838D8173
:1052A0009E8101969E838D838A818F5F8A838A8106
:1052B000823040F38F819885FC0123813481898578
:1052C0009A85FC013183208389810E94C60080E099
:1052D0002A960FB6F894DEBF0FBECDBFCF91DF91F7
:1052E0000895DF93CF93CDB7DEB727970FB6F89425
:1052F000DEBF0FBECDBF9B838A837D836C835F83BC
:105300004E8319828A819B81FC018081833031F038
:105310008E819F8121E0FC0120832CC00E94C3006C
:1053200089838E819F81FC0110828A819B81FC018F
:1053300083819481009741F08A819B812C813D81FA
:10534000FC013483238313C08A819B81FC01858106
:10535000882341F48A819B812C813D81FC01348327
:10536000238305C08E819F8129E4FC0120838981EC
:105370000E94C60027960FB6F894DEBF0FBECDBFC1
:10538000CF91DF910895AF92BF92CF92DF92EF92CB
:10539000FF920F931F93DF93CF93CDB7DEB72B9779
:1053A0000FB6F894DEBF0FBECDBF9E838D83788786
:1053B0006F835A8749872B8719820E94C30089838C
:1053C00080917A08882329F089810E94C6008CE3A5
:1053D0005EC08B85882F90E0880F991F825E934F67
:1053E000FC0180819181009709F04DC08B85882F49
:1053F00090E0880F991F825E934F21E030E0FC011E
:105400003183208389810E94C6008D819E814F81D6
:10541000588529853A85BA01A90120E030E00E942B
:105420002B029C838B832B813C818B85B90140E0CF
:1054300050E020E030E0EE24FF248701CC24DD247E
:10544000AA24BB240E94DD248A838A81882339F41C
:10545000809140058130A1F40E94E92312C00E948E
:10546000C30089838B85882F90E0880F991F825E07
:10547000934FFC011182108289810E94C60001C0F5
:1054800000008A8104C089810E94C60088E22B96B0
:105490000FB6F894DEBF0FBECDBFCF91DF911F9145
:1054A0000F91FF90EF90DF90CF90BF90AF90089555
:1054B0008F929F92AF92BF92CF92DF92EF92FF9224
:1054C0000F931F93DF93CF93CDB7DEB765970FB6DA
:1054D000F894DEBF0FBECDBF9E838D8378876F8328
:1054E0005A8749872B871D870C87FF86EE86A88AF7
:1054F000B98ACA8ADB8A9D8A8C8A19820E94C30073
:10550000898380917A08882329F089810E94C600C6
:105510008CE35EC08B85882F90E0880F991F825E98
:10552000934FFC0180819181009709F04DC08B85DC
:10553000882F90E0880F991F825E934F21E030E022
:10554000FC013183208389810E94C6008D819E8168
:105550006F81788549855A852DA13EA10E942B0235
:105560009C838B836B817C814E855F852C853D85FB
:10557000E888F9880A891B89AC89BD89EDA1FEA15B
:105580008B856D015F010E94DD248A838A818823D7
:1055900039F4809140058130A1F40E94E92312C0C2
:1055A0000E94C30089838B85882F90E0880F991F04
:1055B000825E934FFC011182108289810E94C60095
:1055C00001C000008A8104C089810E94C60088E26F
:1055D00065960FB6F894DEBF0FBECDBFCF91DF91B9
:1055E0001F910F91FF90EF90DF90CF90BF90AF9001
:1055F0009F908F900895DF93CF93CDB7DEB7299713
:105600000FB6F894DEBF0FBECDBF8D837F836E8350
:1056100059874887198280917A08882339F08885CC
:10562000998521E1FC01208380E049C00E94C300EC
:1056300089838D818F3F39F480917B0890917C081C
:10564000FC01808D8D838D81882F90E0880F991FBC
:10565000825E934FFC01808191819C838B838B813F
:105660009C81009751F489810E94C60088859985A4
:1056700023E4FC01208380E022C08B819C81813067
:10568000910551F489810E94C6008885998523E49B
:10569000FC01208380E013C08B819C819C01215DF3
:1056A0003F4F8E819F81B9010E9466248A83898140
:1056B0000E94C60088859985FC0110828A812996FE
:1056C0000FB6F894DEBF0FBECDBFCF91DF91089526
:1056D000DF93CF93CDB7DEB729970FB6F894DEBF2F
:1056E0000FBECDBF8D837F836E8359874887198214
:1056F00080917A08882331F08885998522E1FC0120
:10570000208354C00E94C30089838D818F3F39F468
:1057100080917B0890917C08FC01808D8D838D8128
:10572000882F90E0880F991F825E934FFC01808143
:1057300091819B838A838A819B81009749F4898127
:105740000E94C6008885998523E4FC0120832EC031
:105750008A819B818130910549F489810E94C6002C
:105760008885998523E4FC01208320C08E819F8158
:105770000E949B248C838C81803148F089810E9417
:10578000C6008885998521E4FC0120830FC08A81A9
:105790009B818F962E813F81B9010E946624898169
:1057A0000E94C60088859985FC01108229960FB653
:1057B000F894DEBF0FBECDBFCF91DF910895DF9388
:1057C000CF9300D00F92CDB7DEB78C8319820E94A1
:1057D000C30089838C81882F90E0880F991F825E97
:1057E000934FFC01808191819B838A838A819B8175
:1057F000009729F489810E94C60086E467C08A81E7
:105800009B818130910529F489810E94C60083E43F
:105810005DC08A819B81FC018689882F90E0887019
:105820009070009709F44EC08A819B81FC018689A3
:10583000282F277F8A819B81FC01268B8A819B816F
:10584000FC0186898823B9F58A819B81FC018489C2
:105850009589009761F58A819B81FC01948D8091E7
:10586000C607892B8093C6078A819B81FC01828DA4
:10587000882F90E02A813B81F901228D222F30E090
:105880002953384FF90140812A813B81F901238D49
:10589000242B8953984FFC01208389810E94C600E4
:1058A00080914005813059F40E94E92309C0898123
:1058B0000E94C60005C089810E94C60001C0000088
:1058C00080E004C089810E94C60084E40F900F909C
:1058D0000F900F90CF91DF910895DF93CF9300D079
:1058E00000D0CDB7DEB78E8319820E94C3008983B2
:1058F0008E818F3F51F480917B0890917C08FC0150
:10590000808D8E8381E08D830DC080917B08909186
:105910007C08FC01908D8E81981719F481E08D83AD
:1059200001C01D828E81882F90E0880F991F825EB2
:10593000934FFC01808191819C838B838B819C811F
:10594000009729F489810E94C60088E44BC08B81AE
:105950009C818130910529F489810E94C60083E4ED
:1059600041C08B819C81FC01828D8A838A81882F32
:1059700090E02A81222F30E02953384FF90120810D
:10598000422F2B813C81F901238D209524238953BB
:10599000984FFC0120838A81882F90E08953984F8B
:1059A000FC018081882359F48B819C81FC01848DCA
:1059B000982F90958091C60789238093C6078B8185
:1059C0009C81FC018689282F28608B819C81FC01A9
:1059D000268B89810E94C6008D81813011F40E943E
:1059E000E92380E026960FB6F894DEBF0FBECDBF48
:1059F000CF91DF910895DF93CF9300D000D0CDB742
:105A0000DEB78C837E836D8319820E94C3008983F5
:105A10008C818F3F39F480917B0890917C08FC0148
:105A2000808D8C838C81882F90E0880F991F825EF7
:105A3000934FFC01808191819B838A838A819B8122
:105A4000009729F489810E94C60089E217C08A81E3
:105A50009B818130910529F489810E94C60083E4ED
:105A60000DC08D819E812A813B81B9014FE350E0B9
:105A70000E94B82389810E94C60080E026960FB656
:105A8000F894DEBF0FBECDBFCF91DF910895DF93B5
:105A9000CF9300D00F92CDB7DEB79C838B83198252
:105AA00080917A08882309F04BC08B819C810097F4
:105AB00009F447C00E94C300898380917B089091BC
:105AC0007C08FC01828D8A838A81882F90E02A815C
:105AD000222F30E02953384FF9012081422F2091A5
