:100000000C94A0000C94FC3A0C94C1000C94C10018
:100010000C94C1000C94C1000C94C1000C94C1005C
:100020000C94C1000C94C1000C94C1000C94C1004C
:100030000C94C1000C94C1000C94C1000C94C1003C
:100040000C94C1000C94C1000C94C1000C94C1002C
:100050000C94C1000C94963A0C94C1000C94C1000D
:100060000C94C1000C94C1000C94C1000C94C1000C
:100070000C94C1000C94DD380C94C1000C94C100A8
:100080000C94A3380C94C1000C94C1000C94C100D2
:100090000C94C1000C94C1000C94C1000C94C100DC
:1000A0000C94C1000C94C1000C94C1000C94C100CC
:1000B0000C94C1000C94C1000C94C1000C94C100BC
:1000C0000C94C1000C94C1000C94C1000C94C100AC
:1000D0000C94C1000C94C1000C94C1000C94C1009C
:1000E0000C94C1000100785634120A00100001007F
:1000F0001800F000000000000000000005001000E3
:100100000A000000000005001000000000000000D0
:1001100002000000040000000200010001000100D4
:1001200001000000AF000100080010000000AF0057
:10013000000001000B003F00640001001E01CC0321
:1001400011241FBECFEFD1E2DEBFCDBF00E00CBF58
:1001500014E0A0E0B2E0E6ECFCE700E00BBF02C078
:1001600007900D92A03DB107D9F71EE0A0EDB4E0D5
:1001700001C01D92A83DB107E1F70E9438390C94E7
:10018000613E0C9400008FB7F89408958FBF0895D6
:100190000E948D0300911205039500931205E091D2
:1001A0009607F0919707C191CDBFD191DEBF0F9116
:1001B0000F770FBF0F910BBFFF91EF91DF91CF91A1
:1001C000BF91AF919F918F917F916F915F914F916F
:1001D0003F912F911F910F91FF90EF90DF90CF9063
:1001E000BF90AF909F908F907F906F905F904F9057
:1001F0003F902F901F900F9018950F921F922F9263
:100200003F924F925F926F927F928F929F92AF92A6
:10021000BF92CF92DF92EF92FF920F931F932F9393
:100220003F934F935F936F937F938F939F93AF937E
:10023000BF93CF93DF93EF93FF930BB70F930FB75A
:100240000F93E0914D08F0914E08CDB7C193DEB702
:10025000D1930E948D030091190500938A07E091C4
:100260009607F0919707E0934D08F0934E08C191DF
:10027000CDBFD191DEBF0F9107FD24C00FBF0F91FD
:100280000BBFFF91EF91DF91CF91BF91AF919F9104
:100290008F917F916F915F914F913F912F911F911E
:1002A0000F91FF90EF90DF90CF90BF90AF909F9015
:1002B0008F907F906F905F904F903F902F901F9006
:1002C0000F9008950F770FBF0F910BBFFF91EF9124
:1002D000DF91CF91BF91AF919F918F917F916F915E
:1002E0005F914F913F912F911F910F91FF90EF9050
:1002F000DF90CF90BF90AF909F908F907F906F9046
:100300005F904F903F902F901F900F9018950E94F4
:100310008D030091190500938A07E0919607F091EB
:100320009707E0934D08F0934E08C191CDBFD1914E
:10033000DEBF0F9107FD24C00FBF0F910BBFFF91D0
:10034000EF91DF91CF91BF91AF919F918F917F916D
:100350006F915F914F913F912F911F910F91FF905E
:10036000EF90DF90CF90BF90AF909F908F907F9055
:100370006F905F904F903F902F901F900F90089537
:100380000F770FBF0F910BBFFF91EF91DF91CF91CF
:10039000BF91AF919F918F917F916F915F914F919D
:1003A0003F912F911F910F91FF90EF90DF90CF9091
:1003B000BF90AF909F908F907F906F905F904F9085
:1003C0003F902F901F900F901895DF93CF93CDB74C
:1003D000DEB71092D1041092D004CF91DF9108952E
:1003E000DF93CF93CDB7DEB7CF91DF910895DF9341
:1003F000CF930F920F92CDB7DEB79A83898389810D
:100400009A810E945A3A0F900F90CF91DF910895F0
:10041000DF93CF930F920F92CDB7DEB79A83898384
:1004200089819A810E94673A0F900F90CF91DF9156
:100430000895DF93CF93CDB7DEB70E94743ACF9182
:10044000DF910895DF93CF93CDB7DEB70E947B3A5B
:10045000CF91DF910895DF93CF93CDB7DEB72C977F
:100460000FB6F894DEBF0FBECDBF9E838D83788715
:100470006F835A8749873C872B8789859A859C8318
:100480008B838D819E819A8389838981EB81FC8115
:1004900080838B819C8101979C838B8389819A8146
:1004A000892F99279A8389838981EB81FC818083B5
:1004B0008B819C8101979C838B831A82198289810D
:1004C000EB81FC8180838B819C8101979C838B8352
:1004D000EB81FC8110828B819C8101979C838B83B3
:1004E000EB81FC8110828B819C8101979C838B83A3
:1004F000EB81FC8110828B819C8101979C838B8393
:10050000EB81FC8110828B819C8101979C838B8382
:10051000EB81FC8110828B819C8101979C838B8372
:10052000EB81FC8110828B819C8101979C838B8362
:10053000EB81FC8110828B819C8101979C838B8352
:10054000EB81FC8110828B819C8101979C838B8342
:10055000EB81FC8110828B819C8101979C838B8332
:10056000EB81FC8110828B819C8101979C838B8322
:10057000EB81FC8110828B819C8101979C838B8312
:10058000EB81FC8110828B819C8101979C838B8302
:10059000EB81FC8110828B819C8101979C838B83F2
:1005A000EB81FC8110828B819C8101979C838B83E2
:1005B000EB81FC8110828B819C8101979C838B83D2
:1005C000EB81FC8110828B819C8101979C838B83C2
:1005D000EB81FC8110828B819C8101979C838B83B2
:1005E000EB81FC8110828B819C8101979C838B83A2
:1005F000EB81FC8110828B819C8101979C838B8392
:10060000EB81FC8110828B819C8101979C838B8381
:10061000EB81FC8110828B819C8101979C838B8371
:10062000EB81FC8110828B819C8101979C838B8361
:10063000EB81FC8110828B819C8101979C838B8351
:10064000EB81FC8110828B819C8101979C838B8341
:100650008F8198859A8389838981EB81FC8180834E
:100660008B819C8101979C838B8389819A81892FBF
:100670009927EB81FC8180838B819C8101979C83EE
:100680008B83EB81FC8110828B819C8101979C8301
:100690008B83EB81FC8110828B819C8101979C83F1
:1006A0008B83EB81FC8110828B819C8101979C83E1
:1006B0008B83EB81FC8110828B819C8101979C83D1
:1006C0008B83EB81FC8110828B819C8101979C83C1
:1006D0008B83EB81FC8110828B819C8101979C83B1
:1006E0008B83EB81FC8110828B819C8101979C83A1
:1006F0008B83EB81FC8180E880838B819C810197D7
:100700009C838B838B819C812C960FB6F894DEBFE3
:100710000FBECDBFCF91DF910895DF93CF93CDB7BB
:10072000DEB70E944A3ACF91DF910895DF93CF93CD
:100730000F920F92CDB7DEB79A83898389819A8110
:100740000E94823A0F900F90CF91DF910895DF932E
:10075000CF93CDB7DEB70E948F3A8091D0049091AD
:10076000D10401969093D1048093D0048091D00459
:100770009091D1048A30910530F01092D1041092FA
:10078000D0040E94BA19CF91DF910895DF93CF93DF
:100790000F920F92CDB7DEB784EE90E09A838983F3
:1007A00086EE90E09A8389838AEE90E09A8389832B
:1007B0008CEE90E09A8389838EEE90E09A83898311
:1007C00080EF90E09A83898382EF90E09A83898317
:1007D00084EF90E09A83898386EF90E09A838983FF
:1007E00088EF90E09A8389838AEF90E09A838983E7
:1007F0008CEF90E09A8389838EEF90E09A838983CF
:1008000080E091E09A83898382E091E09A838983F2
:1008100084E091E09A83898386E091E09A838983DA
:1008200088E091E09A8389838AE091E09A838983C2
:100830008CE091E09A8389838EE091E09A838983AA
:1008400080E191E09A83898382E191E09A838983B0
:1008500084E191E09A83898386E191E09A83898398
:1008600088E191E09A8389838AE191E09A83898380
:100870008CE191E09A8389838EE191E09A83898368
:1008800080E291E09A83898382E291E09A8389836E
:1008900084E291E09A83898386E291E09A83898356
:1008A00088E291E09A8389838AE291E09A8389833E
:1008B0008CE291E09A8389838EE291E09A83898326
:1008C00080E391E09A83898382E391E09A8389832C
:1008D00084E391E09A83898386E391E09A83898314
:1008E00088E391E09A8389838AE391E09A838983FC
:1008F0008CE391E09A8389838EE391E09A838983E4
:100900000F900F90CF91DF910895DF93CF93CDB7E4
:10091000DEB729970FB6F894DEBF0FBECDBF9C831C
:100920008B837E836D8358874F83198280914C0817
:10093000882331F0EF81F88581E18083198625C015
:10094000EB81FC818081882F90E0019784309105B4
:10095000B8F40E94C30089838B819C819C01285F2D
:100960003F4F8D819E81B9010E945D0A8A838981F2
:100970000E94C600EF81F88510828A81898705C0B0
:10098000EF81F88581E080831986898529960FB6E5
:10099000F894DEBF0FBECDBFCF91DF910895DF93F6
:1009A000CF93CDB7DEB728970FB6F894DEBF0FBE52
:1009B000CDBF9C838B837E836D8358874F83198241
:1009C00080914C08882329F0EF81F88582E18083AB
:1009D00030C0EB81FC818081882F90E001978430CA
:1009E000910560F40E94C30089838D819E810E94DD
:1009F0008E0A8A838A81803130F40DC0EF81F885B8
:100A000081E0808316C089810E94C600EF81F8854D
:100A10008BE080830EC08B819C8108962D813E8166
:100A2000B9010E945D0A89810E94C600EF81F885A4
:100A3000108228960FB6F894DEBF0FBECDBFCF91BF
:100A4000DF910895DF93CF93CDB7DEB70E94E50124
:100A50000E9498080E94BF080E9439090E9440081D
:100A60000E94EC080E94611A0E94F0010E94C603D5
:100A7000CF91DF910895DF93CF93CDB7DEB780910B
:100A80001205813049F480914C088F3F29F0809104
:100A90004C088F5F80934C08CF91DF910895DF93CE
:100AA000CF930F92CDB7DEB71982809112058130B6
:100AB00009F053C00E94C300898380914C088823A9
:100AC00029F080914C08815080934C0880914C080B
:100AD000882309F03FC080910F058823D9F50E9433
:100AE000360A9091190580918A07981799F180919B
:100AF0001905882F90E0880F991FFC01E051F44FF1
:100B0000808191819093970780939607E091960753
:100B1000F0919707858D968DA78DB0A10196A11DA7
:100B2000B11D858F968FA78FB0A380918D0790916F
:100B30008E07A0918F07B09190070196A11DB11D5E
:100B400080938D0790938E07A0938F07B0939007A3
:100B50000E94870189810E94C6000F90CF91DF918A
:100B60000895DF93CF930F92CDB7DEB719828091AE
:100B70001205813099F40E94C300898380914C084A
:100B8000882349F480910F058F3F29F080910F054C
:100B90008F5F80930F0589810E94C6000F90CF91CF
:100BA000DF910895DF93CF930F92CDB7DEB719820F
:100BB00080911205813029F50E94C30089838091BC
:100BC0000F058823D9F080910F05815080930F0580
:100BD00080910F05882371F480914C08882331F4AB
:100BE00089810E94C6000E94E2090BC089810E948F
:100BF000C60007C089810E94C60003C089810E9487
:100C0000C6000F90CF91DF910895DF93CF93CDB7BA
:100C1000DEB7809112058823F9F40E94360A80918C
:100C2000190580938A0780911905882F90E0880F15
:100C3000991FFC01E051F44F8081918190939707B7
:100C400080939607809196079091970790934E080E
:100C500080934D080E94C800CF91DF910895DF93E3
:100C6000CF9300D0CDB7DEB719820E94A7030E94B0
:100C7000C30089838091530890915408A09155082E
:100C8000B09156080196A11DB11D80935308909311
:100C90005408A0935508B093560889810E94C60055
:100CA00080911205813009F06FC080918B0790917F
:100CB0008C079B838A8362C00E94C3008983EA8178
:100CC000FB8184899589009709F44FC0EA81FB81F3
:100CD000848995890197EA81FB81958B848BEA81D0
:100CE000FB8184899589009709F03FC0EA81FB81E7
:100CF0008689882F90E087739070009761F0EA8171
:100D0000FB818689887CEA81FB81868BEA81FB8175
:100D100081E0878B03C0EA81FB81178AEA81FB812E
:100D20008689882F90E0887090700097F1F4EA81AE
:100D3000FB81948D80919807892B80939807EA8195
:100D4000FB81828D282F30E0EA81FB81828D882F04
:100D500090E0FC01E756F84F9081EA81FB81838D9A
:100D6000892BF901E756F84F8083EA81FB8186855C
:100D700097859B838A8389810E94C600EA81FB81D3
:100D8000808D8A3009F098CF0F900F900F90CF91FF
:100D9000DF910895DF93CF93CDB7DEB78EE191E079
:100DA000CF91DF910895DF93CF93CDB7DEB72B9727
:100DB0000FB6F894DEBF0FBECDBF9F838E837987B9
:100DC00068874A872B87EE81FF818581882F90E095
:100DD000FC01E050FE4F80818B838B81282F30E017
:100DE0008E819F81820F931FFC0136968081882F10
:100DF00090E0FC01E050FE4F80818A838B81982F28
:100E0000990F990F990F8A81890F89838981882F7A
:100E100090E0880F991FFC01E051F44F808191818F
:100E20009D838C83EC81FD81158A148AEC81FD8180
:100E30008689982F8A8580958923EC81FD81868B10
:100E4000EC81FD818B85878BEC81FD818689882FE4
:100E500090E0887090700097D1F4EC81FD81948DC2
:100E600080919807892B809398078B81282F30E0F9
:100E70008B81882F90E0FC01E756F84F9081EC8140
:100E8000FD81838D892BF901E756F84F80838C8192
:100E90009D812E813F81B9010E94CD0789812B96CA
:100EA0000FB6F894DEBF0FBECDBFCF91DF9108958E
:100EB000DF93CF9300D0CDB7DEB79B838A83E091D9
:100EC0004D08F0914E088A819B81938B828BE09133
:100ED0004D08F0914E08828D482F50E0E0914D086A
:100EE000F0914E08828D282F30E08A819B81820FFD
:100EF000931FFC0136969081E0914D08F0914E08C9
:100F0000838D292F282B8A819B81840F951FFC01BB
:100F100036962083EA81FB819581E0914D08F0911E
:100F20004E08848D892BEA81FB818583E0914D08F1
:100F3000F0914E08828D89838981282F30E0898144
:100F4000882F90E0FC01E756F84F8081982FE091C0
:100F50004D08F0914E08838D80958923F901E7565D
:100F6000F84F80838981882F90E0FC01E756F84F85
:100F70008081882361F4E0914D08F0914E08848DC2
:100F8000982F9095809198078923809398070F90C8
:100F90000F900F90CF91DF910895DF93CF9300D002
:100FA0000F920F92CDB7DEB79B838A837D836C83CC
:100FB000EA81FB81828D89838981482F50E0898174
:100FC000282F30E08C819D81820F931FFC01369683
:100FD0008081982FEA81FB81838D80958923282F3A
:100FE0008C819D81840F951FFC0136962083898119
:100FF000282F30E08C819D81820F931FFC01369653
:101000008081882361F4EC81FD818581982FEA81BC
:10101000FB81848D80958923EC81FD8185830F90F0
:101020000F900F900F900F90CF91DF910895DF9365
:10103000CF9300D00F920F92CDB7DEB79D838C83F4
:10104000EC81FD8115828C819D8106969B838A832C
:1010500019820BC0EA81FB8110828A819B810196F3
:101060009B838A8389818F5F89838981823090F312
:101070000F900F900F900F900F90CF91DF910895E8
:10108000DF93CF9300D000D0CDB7DEB788E099E0F2
:1010900060EF70E00E94900988E099E09C838B8368
:1010A00080E299E09A8389831E821D821FC0EB81B2
:1010B000FC811082EB81FC8189819A8192838183FA
:1010C000EB81FC818FE38087EB81FC8111868B8132
:1010D0009C8148969C838B8389819A8148969A83C8
:1010E00089838D819E8101969E838D838D819E81D2
:1010F00089309105E0F2EB81FC811082EB81FC816B
:1011000012821182EB81FC818FE38087EB81FC816D
:10111000118688E099E090934B0880934A082696C0
:101120000FB6F894DEBF0FBECDBFCF91DF9108950B
:10113000DF93CF93CDB7DEB71092530810925408C7
:10114000109255081092560810924C0810920F05F4
:10115000109295071092120510928D0710928E072B
:1011600010928F0710929007109213051092140599
:101170001092150510921605CF91DF910895DF9317
:10118000CF9300D0CDB7DEB71092980789E997E0EA
:101190009A8389831B820BC0E981FA81108289813D
:1011A0009A8101969A8389838B818F5F8B838B8150
:1011B000823090F310928A071092190510929707C7
:1011C0001092960710924E0810924D080F900F90B3
:1011D0000F90CF91DF9108958F929F92AF92BF921F
:1011E000CF92DF92EF92FF920F931F93DF93CF93F3
:1011F0000F92CDB7DEB70F920F92EDB7FEB73196D3
:101200002BEA3AE047E059E0A9E5B8E083E090E056
:1012100091838083C90160E070E02AE00FEF1FEF47
:101220007D010F2EFFEAAF2EF0E0BF2EF0E0CF2EB3
:10123000F0E0DF2EF02D882499240E94F1100F9009
:101240000F9020E033E08AE0B9019E012F5F3F4F0D
:10125000A9010E9403120F90CF91DF911F910F916E
:10126000FF90EF90DF90CF90BF90AF909F908F90C6
:101270000895DF93CF9300D00F920F92CDB7DEB7D2
:1012800088EF99E068EF71E00E94900980EF9BE0A1
:1012900066E170E00E94900988EF99E09C838B835F
:1012A00087E39AE09A8389831D821AC0EB81FC81CF
:1012B00089819A8197878687EB81FC818FE387A755
:1012C000EB81FC8110AA8B819C81CF969C838B83C0
:1012D00089819A81CF969A8389838D818F5F8D834F
:1012E0008D81873018F3EB81FC8117861686EB81A0
:1012F000FC818FE387A7EB81FC8110AA10928C07F9
:1013000010928B0788EF99E090939407809393074E
:101310000F900F900F900F900F90CF91DF91089545
:10132000DF93CF9300D00F92CDB7DEB79A83898336
:101330007C836B830DC0E981FA81108289819A8157
:1013400001969A8389838B819C8101979C838B83EF
:101350008B819C81009779F70F900F900F900F90E1
:10136000CF91DF910895DF93CF9300D000D0CDB718
:10137000DEB79A8389837C836B835E834D8315C03C
:10138000EB81FC818081E981FA81808389819A8166
:1013900001969A8389838B819C8101969C838B83A0
:1013A0008D819E8101979E838D838D819E81009783
:1013B00039F726960FB6F894DEBF0FBECDBFCF919A
:1013C000DF910895DF93CF930F92CDB7DEB71982E7
:1013D0000E94C300898380914C08882309F03FC094
:1013E00080910F058823D9F50E94360A909119053E
:1013F00080918A07981799F180911905882F90E0BC
:10140000880F991FFC01E051F44F808191819093E6
:10141000970780939607E0919607F0919707858D3F
:10142000968DA78DB0A10196A11DB11D858F968FB8
:10143000A78FB0A380918D0790918E07A0918F0701
:10144000B09190070196A11DB11D80938D079093D7
:101450008E07A0938F07B09390070E94FD008981AB
:101460000E94C6000F90CF91DF910895DF93CF9334
:101470000F92CDB7DEB780919807882F90E0FC01DE
:10148000E050FE4F808189838981282F220F220F0F
:10149000220F8981882F90E0FC01E756F84F808168
:1014A000882F90E0FC01E050FE4F8081820F8093F6
:1014B00019050F90CF91DF910895DF93CF9300D05E
:1014C0000F920F92CDB7DEB79B838A837D836C83A7
:1014D000198213C0EC81FD818081EA81FB818083C8
:1014E0008A819B8101969B838A838C819D81019651
:1014F0009D838C8389818F5F8983EC81FD818081CD
:10150000882341F7EA81FB81108289810F900F9037
:101510000F900F900F90CF91DF910895DF93CF93AD
:1015200000D0CDB7DEB79B838A83198208C08A8139
:101530009B8101969B838A8389818F5F8983EA815E
:10154000FB818081882399F789810F900F900F90FC
:10155000CF91DF910895DF93CF9300D0CDB7DEB761
:101560009B838A8319820E94C3008983809113051B
:1015700090911405A0911505B09116050196A11D35
:10158000B11D8093130590931405A0931505B09396
:10159000160589810E94C6000E941902E4CFAF920D
:1015A000BF92CF92DF92EF92FF920F931F93DF9340
:1015B000CF93CDB7DEB763970FB6F894DEBF0FBEFB
:1015C000CDBF8C837E836D8358874F833A8729876D
:1015D000EB86FC860D871E87D88ACF86BA8AA98AB1
:1015E00019820E94C3008983809193079091940788
:1015F0009B838A838A819B81009709F4F1C0EA81E9
:10160000FB818685978590939407809393078981C2
:101610000E94C600EA81FB818D819E819183808337
:10162000EA81FB818C81808FEA81FB81168AEA81C5
:10163000FB81178AEA81FB81158A148AEA81FB8182
:101640008F85988993838283EA81FB818B859C8532
:10165000AD85BE8586839783A087B187EA81FB81AC
:101660008F81988595838483EA81FB8189899A8912
:1016700093878287EA81FB8189859A85958784870C
:101680008C81869586958695EA81FB81828F8C81F7
:101690008770EA81FB81818FEA81FB81828D282F0F
:1016A00030E081E090E002C0880F991F2A95E2F7B0
:1016B000EA81FB81848FEA81FB81818D282F30E0D4
:1016C00081E090E002C0880F991F2A95E2F7EA8135
:1016D000FB81838FEA81FB81138A128AEA81FB8175
:1016E000158E168E178E10A2EA81FB8115A216A206
:1016F00017A210A6EA81FB8111A212A213A214A2C2
:10170000EA81FB8112A611A6EA81FB8113A614A629
:1017100015A616A6EA81FB818FE387A7EA81FB81E4
:1017200010AA8A819B810E9496038A819B810E94D4
:10173000F7010E94C30089838C81882F90E0880F75
:10174000991FFC01E051F44F8A819B819183808332
:1017500080918B0790918C07EA81FB819787868720
:10176000EA81FB81118A108A80918B0790918C0706
:10177000009741F0E0918B07F0918C078A819B8163
:10178000918B808B8A819B8190938C0780938B07B0
:10179000EA81FB81948D80919807892B809398072B
:1017A000EA81FB81828D282F30E0EA81FB81828DE6
:1017B000882F90E0FC01E756F84F9081EA81FB8189
:1017C000838D892BF901E756F84F80838091950727
:1017D0008F5F8093950789810E94C6001B8A05C090
:1017E00089810E94C60082E48B8B8B8963960FB639
:1017F000F894DEBF0FBECDBFCF91DF911F910F9147
:10180000FF90EF90DF90CF90BF90AF900895DF935F
:10181000CF930F920F92CDB7DEB78EE093E09A830D
:10182000898380E193E09A83898386E193E09A83B8
:10183000898388E193E09A83898384E193E09A83A2
:1018400089838AE193E09A8389838CE193E09A8388
:1018500089838EE193E09A83898380E293E09A837F
:10186000898382E293E09A83898384E293E09A8376
:10187000898386E293E09A83898388E293E09A835E
:1018800089838AE293E09A8389838CE293E09A8346
:1018900089838EE293E09A83898380E393E09A833D
:1018A000898382E393E09A83898384E393E09A8334
:1018B000898386E393E09A83898388E393E09A831C
:1018C00089838AE393E09A8389838CE393E09A8304
:1018D00089838EE393E09A83898380E493E09A83FB
:1018E000898382E493E09A83898384E493E09A83F2
:1018F000898386E493E09A83898388E493E09A83DA
:1019000089838AE493E09A8389838CE493E09A83C1
:1019100089838EE493E09A83898380E593E09A83B8
:10192000898382E593E09A83898384E593E09A83AF
:10193000898386E593E09A83898388E593E09A8397
:1019400089838AE593E09A8389838CE593E09A837F
:1019500089838EE593E09A83898380E693E09A8376
:10196000898382E693E09A83898384E693E09A836D
:10197000898386E693E09A8389838AE195E09A8356
:1019800089838FEE94E09A8389838AE693E09A8331
:1019900089838CE693E09A8389838EE693E09A8329
:1019A000898380E793E09A83898382E793E09A832F
:1019B000898384E793E09A83898386E793E09A8317
:1019C000898388E793E09A8389838AE793E09A83FF
:1019D000898388E693E09A8389838CE793E09A83EE
:1019E00089830F900F90CF91DF910895DF93CF936C
:1019F000CDB7DEB727970FB6F894DEBF0FBECDBFC9
:101A00009D838C831982EC81FD818081833019F064
:101A10001F821E821DC00E94C3008983EC81FD814C
:101A2000838194819B838A838A819B81009749F07B
:101A3000EC81FD81838194810197EC81FD81948308
:101A4000838389810E94C6008A819B819F838E83C4
:101A50008E819F8127960FB6F894DEBF0FBECDBF53
:101A6000CF91DF910895DF93CF93CDB7DEB727975E
:101A70000FB6F894DEBF0FBECDBF9D838C83198255
:101A800080914C08882319F01F821E823DC00E945D
:101A9000C300898380914A0890914B089B838A8375
:101AA00080914A0890914B08009751F0E0914A08C4
:101AB000F0914B088181928190934B0880934A0862
:101AC00089810E94C6008A819B810097C9F0EA81C2
:101AD000FB8183E08083EA81FB818C819D819483FB
:101AE0008383EA81FB8112821182EA81FB818FE389
:101AF0008087EA81FB8111868A819B810E94170879
:101B00008A819B819F838E838E819F8127960FB6CA
:101B1000F894DEBF0FBECDBFCF91DF910895DF9364
:101B2000CF93CDB7DEB72D970FB6F894DEBF0FBEBB
:101B3000CDBF9E838D836F83598748871982ED813E
:101B4000FE818081833049F0E885F98581E08083DA
:101B50002D813E813D872C87A2C080914C0888232F
:101B600049F0E885F9858FE080838D819E819D878E
:101B70008C8795C00E94C3008983ED81FE81858199
:101B8000882319F081E08C8301C01C828F81282F6B
:101B900030E03B872A878A859B85009731F02A852C
:101BA0003B8521303105E9F16BC08C81882329F513
:101BB000ED81FE818FE38087ED81FE811186ED81CD
:101BC000FE81108280914A0890914B08ED81FE8140
:101BD00092838183ED81FE81148213828D819E81A7
:101BE00090934B0880934A0889810E94C600E8853B
:101BF000F98510821B821A824EC089810E94C6001C
:101C0000E885F98589E480838D819E819B838A8321
:101C100042C08D819E8160E070E041E020E00E9442
:101C2000D306ED81FE818581882399F7ED81FE81C0
:101C30008FE38087ED81FE811186ED81FE81108228
:101C400080914A0890914B08ED81FE8192838183B7
:101C5000ED81FE81148213828D819E8190934B08C9
:101C600080934A0889810E94C6008C81813011F4DA
:101C70000E94E209E885F98510821B821A820BC056
:101C800089810E94C600E885F98587E080838D817F
:101C90009E819B838A838A819B819D878C878C858B
:101CA0009D852D960FB6F894DEBF0FBECDBFCF91A8
:101CB000DF910895DF93CF93CDB7DEB729970FB6A5
:101CC000F894DEBF0FBECDBF9B838A837D836C8378
:101CD0005F834E831982EA81FB818081833029F002
:101CE000EE81FF8181E080838CC080914C08882345
:101CF00029F0EE81FF8182E0808383C080910F050F
:101D0000882329F0EE81FF818DE080837AC00E94D4
:101D1000C3008983EA81FB8183819481009781F0EC
:101D2000EA81FB81838194810197EA81FB8194831D
:101D3000838389810E94C600EE81FF81108261C089
:101D4000A0914D08B0914E08E0914D08F0914E08D9
:101D50008689816056968C93E0914D08F0914E08EB
:101D6000178AE0914D08F0914E088C819D81958BEA
:101D7000848B8A819B810E94580789810E94C600BA
:101D80000E94E2090E94C3008983E0914D08F0910E
:101D90004E088789282F30E03987288788859985DC
:101DA000009731F0288539852230310529F009C0A6
:101DB000EE81FF81108212C0EE81FF818EE0808370
:101DC0000DC080914D0890914E082A813B81B90148
:101DD0000E94CD07EE81FF818AE08083E0914D086B
:101DE000F0914E08168AE0914D08F0914E08178A3E
:101DF000E0914D08F0914E08138A128A89810E9461
:101E0000C60029960FB6F894DEBF0FBECDBFCF91A6
:101E1000DF910895DF93CF93CDB7DEB728970FB644
:101E2000F894DEBF0FBECDBF9C838B836D835F8331
:101E30004E831982EB81FC818081833031F0EE8109
:101E4000FF8181E0808318863FC00E94C3008983A0
:101E5000EB81FC818581882381F11A828D81882F15
:101E600090E08130910561F011C08B819C8160E030
:101E700070E041E022E00E94D3068A818F5F8A836E
:101E8000EB81FC818581882381F70BC08B819C814C
:101E900060E070E041E022E00E94D3068A818F5F1B
:101EA0008A8389810E94C6000E94E209EE81FF8137
:101EB0008EE080838A81888707C089810E94C6005E
:101EC000EE81FF8110821886888528960FB6F894D7
:101ED000DEBF0FBECDBFCF91DF910895DF93CF93CB
:101EE00000D00F92CDB7DEB79B838A831982EA8137
:101EF000FB818081833019F021E02C8332C00E9465
:101F0000C3008983EA81FB818581882379F08A81F6
:101F10009B8160E070E041E020E00E94D30689816F
:101F20000E94C6000E94E2091C821BC0EA81FB815C
:101F3000838194812FEF8F3F920771F0EA81FB81BB
:101F4000838194810196EA81FB81948383838981D3
:101F50000E94C6001C8205C089810E94C60082E3DF
:101F60008C838C810F900F900F900F90CF91DF9109
:101F70000895DF93CF93CDB7DEB72B970FB6F894C4
:101F8000DEBF0FBECDBF98878F837A87698719829E
:101F9000EF81F8858081833019F081E08B8737C02D
:101FA0000E94C3008983EF81F8858581E985FA85E0
:101FB00084838F81988506969E838D8389859A85F3
:101FC00002969C838B831A8213C0ED81FE818081EF
:101FD000EB81FC8180838B819C8101969C838B8328
:101FE0008D819E8101969E838D838A818F5F8A83F6
:101FF0008A81823050F3EF81F88583819481E9856D
:10200000FA859183808389810E94C6001B868B8517
:102010002B960FB6F894DEBF0FBECDBFCF91DF91E8
:102020000895DF93CF93CDB7DEB727970FB6F89417
:10203000DEBF0FBECDBF9B838A837D836C835F83AE
:102040004E831982EA81FB818081833029F0EE8101
:10205000FF8181E0808326C00E94C3008983EE81D6
:10206000FF811082EA81FB8183819481009739F09E
:10207000EA81FB818C819D819483838310C0EA81F6
:10208000FB818581882339F4EA81FB818C819D81E4
:102090009483838304C0EE81FF8189E480838981F6
:1020A0000E94C60027960FB6F894DEBF0FBECDBFC4
:1020B000CF91DF910895AF92BF92CF92DF92EF92CE
:1020C000FF920F931F93DF93CF93CDB7DEB72C977B
:1020D0000FB6F894DEBF0FBECDBF9E838D83788789
:1020E0006F835A8749872B8719820E94C30089838F
:1020F00080914C08882331F089810E94C6008CE3CE
:102100008C875DC08B85882F90E0880F991FFC011C
:10211000E051F44F80819181009709F04BC08B858D
:10212000882F90E0880F991FFC01E051F44F81E067
:1021300090E09183808389810E94C6008D819E8179
:102140002F81388549855A85B90120E030E00E9409
:102150002B029C838B832B813C818B85B90140E0D2
:1021600050E020E030E0EE24FF248701CC24DD2481
:10217000AA24BB240E94CF0A8A838A81882339F447
:1021800080911205813099F40E94E20910C00E94EA
:10219000C30089838B85882F90E0880F991FFC01ED
:1021A000E051F44F1182108289810E94C6008A8119
:1021B0008C8705C089810E94C60088E28C878C8547
:1021C0002C960FB6F894DEBF0FBECDBFCF91DF9136
:1021D0001F910F91FF90EF90DF90CF90BF90AF9045
:1021E00008958F929F92AF92BF92CF92DF92EF921B
:1021F000FF920F931F93DF93CF93CDB7DEB7669710
:102200000FB6F894DEBF0FBECDBF9E838D83788757
:102210006F835A8749872B871D870C87FF86EE8639
:10222000A88AB98ACA8ADB8A9D8A8C8A19820E9406
:10223000C300898380914C08882331F089810E94F2
:10224000C6008CE38E8B61C08B85882F90E0880F51
:10225000991FFC01E051F44F80819181009709F0B2
:102260004FC08B85882F90E0880F991FFC01E051AB
:10227000F44F81E090E09183808389810E94C600C1
:102280008D819E812F81388549855A85EEA1FFA1D8
:10229000B9019F010E942B029C838B832B813C817F
:1022A0004E855F85EC85FD85E888F9880A891B895C
:1022B000AC89BD89AEA0BFA08B85B9019F016D011E
:1022C0000E94CF0A8A838A81882339F4809112057B
:1022D000813099F40E94E20910C00E94C3008983F2
:1022E0008B85882F90E0880F991FFC01E051F44FF7
:1022F0001182108289810E94C6008A818E8B05C05E
:1023000089810E94C60088E28E8B8E8966960FB600
:10231000F894DEBF0FBECDBFCF91DF911F910F911B
:10232000FF90EF90DF90CF90BF90AF909F908F90F5
:102330000895DF93CF93CDB7DEB72A970FB6F89401
:10234000DEBF0FBECDBF8D837F836E8359874887E5
:10235000198280914C08882331F0E885F98581E164
:1023600080831A8646C00E94C30089838D818F3F77
:1023700031F4E0914D08F0914E08808D8D838D8170
:10238000882F90E0880F991FFC01E051F44F808165
:1023900091819C838B838B819C81009749F48981F7
:1023A0000E94C600E885F98583E480831A8621C0EF
:1023B0008B819C818130910549F489810E94C600FE
:1023C000E885F98583E480831A8613C08B819C811C
:1023D0009C01215D3F4F8E819F81B9010E945D0A62
:1023E0008A8389810E94C600E885F98510828A81E6
:1023F0008A878A852A960FB6F894DEBF0FBECDBFB6
:10240000CF91DF910895DF93CF93CDB7DEB72997B2
:102410000FB6F894DEBF0FBECDBF8D837F836E8372
:1024200059874887198280914C08882329F0E885CC
:10243000F98582E180834FC00E94C30089838D812A
:102440008F3F31F4E0914D08F0914E08808D8D83DF
:102450008D81882F90E0880F991FFC01E051F44F87
:10246000808191819B838A838A819B81009741F43B
:1024700089810E94C600E885F98583E480832BC0AA
:102480008A819B818130910541F489810E94C60037
:10249000E885F98583E480831EC08E819F810E9438
:1024A0008E0A8C838C81803140F089810E94C60025
:1024B000E885F98581E480830EC08A819B818F96AF
:1024C0002E813F81B9010E945D0A89810E94C60068
:1024D000E885F985108229960FB6F894DEBF0FBE05
:1024E000CDBFCF91DF910895DF93CF9300D00F92AE
:1024F0000F92CDB7DEB78C8319820E94C300898307
:102500008C81882F90E0880F991FFC01E051F44FD7
:10251000808191819B838A838A819B81009731F49A
:1025200089810E94C60086E48D835DC08A819B817B
:102530008130910531F489810E94C60083E48D8346
:1025400052C0EA81FB818689882F90E08870907064
:10255000009709F443C0EA81FB818689877FEA817D
:10256000FB81868BEA81FB818689882391F5EA814C
:10257000FB8184899589009741F5EA81FB81948DDF
:1025800080919807892B80939807EA81FB81828D3F
:10259000282F30E0EA81FB81828D882F90E0FC01BA
:1025A000E756F84F9081EA81FB81838D892BF901F1
:1025B000E756F84F808389810E94C60080911205FA
:1025C000813051F40E94E20907C089810E94C6004F
:1025D00003C089810E94C6001D8205C089810E94B6
:1025E000C60084E48D838D810F900F900F900F9023
:1025F0000F90CF91DF910895DF93CF93CDB7DEB7E2
:1026000027970FB6F894DEBF0FBECDBF8E83198219
:102610000E94C30089838E818F3F49F4E0914D0869
:10262000F0914E08808D8E8381E08D830CC0E09107
:102630004D08F0914E08908D8E81981719F481E025
:102640008D8301C01D828E81882F90E0880F991F95
:10265000FC01E051F44F808191819C838B838B81BD
:102660009C81009731F489810E94C60088E48F83A1
:1026700046C08B819C818130910531F489810E9413
:10268000C60083E48F833BC0EB81FC81828D8A830B
:102690008A81282F30E08A81882F90E0FC01E7565C
:1026A000F84F8081982FEB81FC81838D8095892361
:1026B000F901E756F84F80838A81882F90E0FC016A
:1026C000E756F84F8081882351F4EB81FC81848D9B
:1026D000982F909580919807892380939807EB8194
:1026E000FC8186898860EB81FC81868B89810E94D0
:1026F000C6008D81813011F40E94E2091F828F8112
:1027000027960FB6F894DEBF0FBECDBFCF91DF91F5
:102710000895DF93CF93CDB7DEB727970FB6F89420
:10272000DEBF0FBECDBF8C837E836D8319820E9476
:10273000C30089838C818F3F31F4E0914D08F09183
:102740004E08808D8C838C81882F90E0880F991F94
:10275000FC01E051F44F808191819B838A838A81BF
:102760009B81009731F489810E94C60089E28F83A2
:1027700018C08A819B818130910531F489810E9442
:10278000C60083E48F830DC08D819E812A813B81A9
:10279000B9014FE350E00E94B30989810E94C6004D
:1027A0001F828F8127960FB6F894DEBF0FBECDBF74
:1027B000CF91DF910895DF93CF9300D00F92CDB7E3
:1027C000DEB79C838B83198280914C08882309F0A3
:1027D00046C08B819C81009709F441C00E94C300D0
:1027E0008983E0914D08F0914E08828D8A838A8119
:1027F000282F30E08A81882F90E0FC01E756F84FBF
:102800008081982FE0914D08F0914E08838D80953E
:102810008923F901E756F84F80838A81882F90E059
:10282000FC01E756F84F8081882361F4E0914D0860
:10283000F0914E08848D982F909580919807892368
:1028400080939807E0914D08F0914E088B819C8110
:10285000958B848B89810E94C6000E94E2090F90AB
:102860000F900F900F90CF91DF910895EF92FF920C
:102870000F931F93DF93CF93CDB7DEB72C970FB68F
:10288000F894DEBF0FBECDBF8F83688749873B8733
:102890002A8780914C08882319F085E58C8786C0AB
:1028A0008F81882F90E0A0E0B0E020E13EE040E0A2
:1028B00050E0BC01CD010E94F93D7B018C0188856F
:1028C000882F90E0A0E0B0E02CE330E040E050E062
:1028D000BC01CD010E94F93DDC01CB01A8019701AB
:1028E000280F391F4A1F5B1F8985882F90E0A0E0C1
:1028F000B0E0820F931FA41FB51F24E630E040E034
:1029000050E0BC01CD010E94F93D7B018C018A851C
:102910009B85CC01A0E0B0E024E630E040E050E050
:10292000BC01CD010E94F93DDC01CB018C509E4FD2
:10293000AF4FBF4F28EE33E040E050E0BC01CD0187
:102940000E942B3EDA01C9018E0D9F1DA01FB11FF1
:102950008B839C83AD83BE838B819C81AD81BE8143
:10296000CD01AA27BB279A8389838B819C81AD8166
:10297000BE81A070B0708B839C83AD83BE838B813E
:102980009C810E94DB130DC080E090E80E94DB1365
:1029900080E090E80E94DB1389819A8101979A83F5
:1029A000898389819A81009779F71C868C852C967A
:1029B0000FB6F894DEBF0FBECDBFCF91DF911F9150
:1029C0000F91FF90EF900895DF93CF9300D00F9277
:1029D0000F92CDB7DEB78C8319828C818A3018F0C4
:1029E0008AE28D837DC00E94C30089838C81882FF9
:1029F00090E0880F991FFC01E051F44F8081918194
:102A00009B838A838A819B81009731F489810E940C
:102A1000C60083E48D8364C08A819B8181309105E7
:102A200031F489810E94C60083E48D8359C0EA8114
:102A3000FB8184899589009731F489810E94C600C1
:102A400080E58D834DC0EA81FB81158A148AEA8175
:102A5000FB818689882F90E087739070009761F0E2
:102A6000EA81FB818689887CEA81FB81868BEA8109
:102A7000FB8181E0878B03C0EA81FB81178AEA81B1
:102A8000FB818689882F90E088709070009721F5EF
:102A9000EA81FB81948D80919807892B8093980718
:102AA000EA81FB81828D282F30E0EA81FB81828DD3
:102AB000882F90E0FC01E756F84F9081EA81FB8176
:102AC000838D892BF901E756F84F808389810E9415
:102AD000C6000E94E20903C089810E94C6001D82CF
:102AE0008D810F900F900F900F900F90CF91DF91ED
:102AF0000895DF93CF9300D00F920F92CDB7DEB73A
:102B000019820E94C30089838091530890915408D0
:102B1000A0915508B09156088A839B83AC83BD83EE
:102B200089810E94C6008A819B81AC81BD81BC01E4
:102B3000CD010F900F900F900F900F90CF91DF91DC
:102B40000895DF93CF9300D00F920F92CDB7DEB7E9
:102B50006A837B838C839D8319820E94C30089834F
:102B60008A819B81AC81BD818093530890935408E6
:102B7000A0935508B093560889810E94C6000F9013
:102B80000F900F900F900F90CF91DF9108958F923B
:102B90009F92AF92BF92CF92DF92EF92FF920F93EC
:102BA000DF93CF93CDB7DEB766970FB6F894DEBF4D
:102BB0000FBECDBF6C837D838E839F83288739872B
:102BC0004A875B870C87FE86ED86D88ACF86BA8ACD
:102BD000A98A9C8A8B8A80914C08882339F0EB89DA
:102BE000FC898BE880831E8A1D8A6BC00E948D1C25
:102BF0000E94CB199B838A838A819B81009749F429
:102C00000E94A21CEB89FC8986E880831E8A1D8AAB
:102C100058C0EA81FB8181E086A3EA81FB818C8137
:102C20009D81AE81BF8185879687A787B08BEA811A
:102C3000FB8188859985AA85BB85818B928BA38B27
:102C4000B48BEA81FB818C8585A3EA81FB818D852C
:102C50009E8592838183EA81FB818F859889948305
:102C6000838389899A89009719F189899A890E94B1
:102C70008E0A89838981803148F48A819B814596B7
:102C800029893A89B9010E945D0A12C0EA81FB8153
:102C900083E2858BEA81FB81168AEB89FC898CE8CB
:102CA00080830E94A21C8A819B819E8B8D8B09C090
:102CB0000E94A21CEB89FC8910828A819B819E8BD9
:102CC0008D8B8D899E8966960FB6F894DEBF0FBEF8
:102CD000CDBFCF91DF910F91FF90EF90DF90CF901C
:102CE000BF90AF909F908F900895DF93CF93CDB713
:102CF000DEB727970FB6F894DEBF0FBECDBF9A831D
:102D000089837C836B83E981FA818081843631F009
:102D1000EB81FC8189E880831F8252C080914C083E
:102D2000882331F0EB81FC818BE880831F8248C0CF
:102D30000E948D1CE981FA8186A1282F30E03E8314
:102D40002D838D819E818330910554F42D813E81A8
:102D500021303105D4F48D819E81009711F129C075
:102D60002D813E812330310521F589819A810E9490
:102D7000151C89819A810E940F1A0E94A21CEB8166
:102D8000FC81108231E03F831BC089819A810E94BF
:102D90000F1A0E94A21CEB81FC81108281E08F83BC
:102DA0000FC00E94A21CEB81FC8187E880831F82F8
:102DB00007C00E94A21CEB81FC818DE880831F82EA
:102DC0008F8127960FB6F894DEBF0FBECDBFCF918F
:102DD000DF910895DF93CF93CDB7DEB72A970FB673
:102DE000F894DEBF0FBECDBF9B838A837D836C8347
:102DF0005F834E83EA81FB818081843631F0EE81EE
:102E0000FF8189E880831A8642C080914C0888231C
:102E100031F0EE81FF8181E180831A8638C00E9403
:102E20008D1CEA81FB8186A1282F30E03987288715
:102E3000888599850097E1F028853985332304F149
:102E40008885998584309105DCF48A819B819C0179
:102E50002B5E3F4F8C819D81B9010E945D0A898361
:102E60000E94A21CEE81FF81108299819A870FC077
:102E70000E94A21CEE81FF8187E880831A8607C02A
:102E80000E94A21CEE81FF818DE880831A868A85CC
:102E90002A960FB6F894DEBF0FBECDBFCF91DF915B
:102EA0000895EF92FF920F931F93DF93CF93CDB7C7
:102EB000DEB72E970FB6F894DEBF0FBECDBF9E8350
:102EC0008D8378876F83ED81FE818081843649F020
:102ED000EF81F88589E880831B861C861D861E8607
:102EE000BFC080914C08882349F0EF81F8858BE8BA
:102EF00080831B861C861D861E86B2C00E948D1C88
:102F0000ED81FE8186A1E82EFF24FA86E9860985F7
:102F10001A850130110509F43FC029853A85223010
:102F2000310534F489859A85009709F484C08EC0F0
:102F3000A985BA85A230B10509F473C009851A853F
:102F40000330110509F082C0ED81FE8121853285B3
:102F50004385548580914F0890915008A091510865
:102F6000B091520879018A01E81AF90A0A0B1B0B81
:102F7000D801C70189839A83AB83BC830E94A21CBA
:102F8000EF81F885108209811A812B813C810B87A2
:102F90001C872D873E8764C0ED81FE8185A1882F27
:102FA00090E08230910529F5ED81FE818585968539
:102FB000A785B0890097A105B10559F4ED81FE817F
:102FC00081899289A389B48989839A83AB83BC83DD
:102FD0000AC0ED81FE8185859685A785B0898983A4
:102FE0009A83AB83BC830E94A21CEF81F885108278
:102FF0000FC0ED81FE8185859685A785B08989837F
:103000009A83AB83BC830E94A21CEF81F885108257
:1030100089819A81AB81BC818B879C87AD87BE8774
:103020001FC00E94A21CEF81F88510821B861C869F
:103030001D861E8615C00E94A21CEF81F88587E8B8
:1030400080831B861C861D861E860AC00E94A21CC9
:10305000EF81F8858DE880831B861C861D861E8681
:103060008B859C85AD85BE85BC01CD012E960FB6A6
:10307000F894DEBF0FBECDBFCF91DF911F910F91AE
:10308000FF90EF900895DF93CF9300D000D0CDB79D
:10309000DEB79B838A837D836C83EA81FB81808199
:1030A000843631F0EC81FD8189E880831E8223C063
:1030B00080914C08882331F0EC81FD818BE880837E
:1030C0001E8219C00E948D1CEA81FB8186A1898322
:1030D0008981882F90E000968430910520F4EC815E
:1030E000FD81108204C0EC81FD818DE880830E9407
:1030F000A21C89818E838E8126960FB6F894DEBF3E
:103100000FBECDBFCF91DF910895DF93CF93CDB7A1
:10311000DEB727970FB6F894DEBF0FBECDBF9A83F8
:1031200089837C836B83E981FA818081843631F0E5
:10313000EB81FC8189E880831F8254C080914C0818
:10314000882331F0EB81FC818BE880831F824AC0A9
:103150000E948D1CE981FA8186A1282F30E03E83F0
:103160002D838D819E818330910554F42D813E8184
:1031700021303105DCF48D819E81009721F12BC037
:103180002D813E812330310531F589819A810E945C
:10319000151C89819A8160E00E94541B0E94A21C28
:1031A000EB81FC81108231E03F831CC089819A81D0
:1031B00060E00E94541B0E94A21CEB81FC811082E3
:1031C00081E08F830FC00E94A21CEB81FC8187E805
:1031D00080831F8207C00E94A21CEB81FC818DE8C6
:1031E00080831F828F8127960FB6F894DEBF0FBEB3
:1031F000CDBFCF91DF910895DF93CF93CDB7DEB7E9
:103200002E970FB6F894DEBF0FBECDBF9C838B8385
:103210006D835F834E8339872887EB81FC818081B2
:10322000843631F0E885F98589E880831E8698C068
:1032300080914C08882331F0E885F9858BE88083FC
:103240001E868EC00E948D1CEB81FC8186A1282FDA
:1032500030E03D872C878C859D858330910564F413
:103260002C853D85213031050CF062C08C859D8513
:10327000009709F466C06DC02C853D85233031056B
:1032800009F067C08B819C810E94151CE885F98537
:1032900010828D81282F30E03B872A878A859B8585
:1032A0008330910551F02A853B8524303105F9F0B2
:1032B0008A859B850097B9F132C0EB81FC818181C1
:1032C00092819A83898389819A81009759F0EB8151
:1032D000FC81238134818B819C81E981FA81B90150
:1032E000199521C0E885F9858FE880831CC0EB81A2
:1032F000FC81818192819A83898389819A81009757
:1033000049F08B819C812E813F81E981FA81B9014D
:10331000199509C0E885F9858FE8808304C0E885A0
:10332000F98584E880830E94A21C91E09E8718C0E2
:103330000E94A21CE885F9858EE8808321E02E8713
:103340000FC00E94A21CE885F98587E880831E864D
:1033500007C00E94A21CE885F9858DE880831E863F
:103360008E852E960FB6F894DEBF0FBECDBFCF91DF
:10337000DF910895DF93CF930F92CDB7DEB78091A1
:103380001005909111050E946E0F898389810F901D
:10339000CF91DF910895DF93CF9300D00F92CDB7F7
:1033A000DEB78091ED049091EE04009719F41C8231
:1033B0001B822CC08091ED049091EE049A83898346
:1033C000E981FA81858196819093EE048093ED04E2
:1033D000E981FA8116821582E981FA8110861782C5
:1033E0008091170590911805019690931805809388
:1033F00017058091910790919207019790939207FA
:103400008093910789819A819C838B838B819C8196
:103410000F900F900F900F90CF91DF910895DF9351
:10342000CF930F920F92CDB7DEB79A838983E9814C
:10343000FA8116A2E981FA8115A2E981FA81118A3D
:10344000128A138A148AE981FA81118612861386F8
:103450001486E981FA8112821182E981FA8114824B
:103460001382E981FA818FE3858BE981FA81168ADB
:10347000E981FA81108617828091ED049091EE0423
:10348000E981FA819683858389819A819093EE04FC
:103490008093ED0480911705909118050197909302
:1034A00018058093170580919107909192070196D6
:1034B00090939207809391070F900F90CF91DF9197
:1034C0000895DF93CF93CDB7DEB727970FB6F89463
:1034D000DEBF0FBECDBF8AE195E060E772E00E94DB
:1034E00090098FEE94E060E270E00E9490098AE11A
:1034F00095E09C838B8381E495E09A8389831E8287
:103500001D8223C0EB81FC8184E68083EB81FC81FA
:1035100016A2EB81FC8189819A8196838583EB8158
:10352000FC818FE3858BEB81FC81168A8B819C81EA
:1035300087969C838B8389819A8187969A838983D6
:103540008D819E8101969E838D838D819E818F309A
:103550009105C0F2EB81FC8184E68083EB81FC81E4
:1035600016A2EB81FC8116821582EB81FC818FE330
:10357000858BEB81FC81168A10924F0810925008BF
:1035800010925108109252081092180510921705C7
:1035900080E190E090939207809391078AE195E013
:1035A0009093EE048093ED0481E090E00E94330D4F
:1035B000909358088093570880E090E00E94330D64
:1035C00090931105809310058091570890915808A9
:1035D0002EE733E0AE01495F5F4FB9010E94CF048F
:1035E000809110059091110529E833E0AE01495F03
:1035F0005F4FB9010E94CF040E94071B27960FB6A8
:10360000F894DEBF0FBECDBFCF91DF9108958F92AA
:103610009F92AF92BF92CF92DF92EF92FF920F9361
:103620001F93DF93CF930F92CDB7DEB70F920F9218
:10363000EDB7FEB731962FEA3CE149E458E0ABE93B
:10364000B7E083E090E091838083C90160E070E09F
:1036500024E00DEF1FEF7D010F2EFFEAAF2EF0E00B
:10366000BF2EF0E0CF2EF0E0DF2EF02D882499243D
:103670000E94F1100F900F9023E933E084E0B9012C
:103680009E012F5F3F4FA9010E9403120F90CF911F
:10369000DF911F910F91FF90EF90DF90CF90BF903F
:1036A000AF909F908F900895DF93CF93CDB7DEB703
:1036B00029970FB6F894DEBF0FBECDBF98878F83D2
:1036C0006987EF81F88583E086A389858130C9F415
:1036D000EF81F885218932894389548980914F0887
:1036E00090915008A0915108B0915208820F931FF9
:1036F000A41FB51FEF81F88581879287A387B487C0
:103700003BC0EF81F88585859685A785B0890097B0
:10371000A105B105C9F4EF81F88521893289438972
:10372000548980914F0890915008A0915108B09110
:103730005208820F931FA41FB51FEF81F885818760
:103740009287A387B48718C0EF81F88525853685D1
:103750004785508980914F0890915008A091510859
:10376000B0915208820F931FA41FB51FEF81F885F7
:1037700081879287A387B487EF81F88581859285B9
:10378000A385B485877090709A83898389819A8193
:10379000880F991F880F991F81519B4F9C838B83A2
:1037A000EB81FC8180819181009789F4EB81FC8120
:1037B0008F81988591838083EF81F88516821582A9
:1037C000EB81FC8181E090E09383828321C0EB81D7
:1037D000FC81808191819E838D83EB81FC818F812F
:1037E000988591838083EF81F8858D819E81968372
:1037F0008583ED81FE818F81988590878783EB811A
:10380000FC81828193810196EB81FC819383828389
:10381000EF81F8851086178229960FB6F894DEBFDF
:103820000FBECDBFCF91DF910895DF93CF93CDB77A
:10383000DEB72A970FB6F894DEBF0FBECDBF9A87CA
:103840008987E985FA8581859285A385B485877006
:1038500090709A83898389819A81880F991F880F34
:10386000991F81519B4F9C838B83EB81FC8120812D
:10387000318189859A8528173907A9F4E985FA8560
:103880008581968198878F83EB81FC818F819885D4
:10389000918380838F819885009709F1EF81F88566
:1038A000108617821CC0E985FA85878190859887E4
:1038B0008F83E985FA85858196819E838D83EF814B
:1038C000F8858D819E81968385838D819E81009769
:1038D00031F0ED81FE818F81988590878783E9851E
:1038E000FA8581E086A3E985FA8516821582E98545
:1038F000FA8510861782EB81FC8182819381019782
:10390000EB81FC81938382832A960FB6F894DEBF05
:103910000FBECDBFCF91DF910895DF93CF930F926C
:10392000CDB7DEB7809157089091580860E070E0FD
:103930009E012F5F3F4FA9010E945A0E0F90CF9119
:10394000DF910895DF93CF93CDB7DEB7809157080D
:10395000909158080E946E0FCF91DF910895DF93E8
:10396000CF93CDB7DEB72D970FB6F894DEBF0FBE5D
:10397000CDBF9D878C8780911005909111059E0188
:10398000255F3F4F60E070E0A9010E945A0E0E943F
:103990008D1C80914F0890915008A0915108B091D2
:1039A00052080196A11DB11D80934F0890935008B5
:1039B000A0935108B093520880914F0890915008FD
:1039C000A0915108B0915208877090709A838983B2
:1039D00089819A81880F991F880F991F81519B4F68
:1039E0009C838B83EB81FC81808191819A8789877D
:1039F00044C0E985FA858581968198878F83E9851A
:103A0000FA85218532854385548580914F089091B0
:103A10005008A0915108B0915208281739074A0759
:103A20005B0739F5E985FA85818192819E838D83D3
:103A30008D819E81009751F0E985FA85238134813B
:103A400089859A85ED81FE81B901199589859A85C7
:103A50000E94151CE985FA8585A1823031F489859B
:103A60009A8561E00E94541B04C0E985FA8582E0D2
:103A700086A38F8198859A87898789859A850097FB
:103A800009F0B7CF0E94A21C76CFDF93CF93CDB7BA
:103A9000DEB729970FB6F894DEBF0FBECDBF9C836B
:103AA0008B837E836D8358874F83198280914C0866
:103AB000882331F0EF81F88581E18083198625C064
:103AC000EB81FC818081882F90E001978430910503
:103AD000B8F40E94C30089838B819C819C01285F7C
:103AE0003F4F8D819E81B9010E941D238A83898168
:103AF0000E94C600EF81F88510828A81898705C0FF
:103B0000EF81F88581E080831986898529960FB633
:103B1000F894DEBF0FBECDBFCF91DF910895DF9344
:103B2000CF93CDB7DEB728970FB6F894DEBF0FBEA0
:103B3000CDBF9C838B837E836D8358874F8319828F
:103B400080914C08882329F0EF81F88582E18083F9
:103B500030C0EB81FC818081882F90E00197843018
:103B6000910560F40E94C30089838D819E810E942B
:103B70004E238A838A81803130F40DC0EF81F8852D
:103B800081E0808316C089810E94C600EF81F8859C
:103B90008BE080830EC08B819C8108962D813E81B5
:103BA000B9010E941D2389810E94C600EF81F8851A
:103BB000108228960FB6F894DEBF0FBECDBFCF910E
:103BC000DF910895DF93CF93CDB7DEB70E94E50173
:103BD0000E9458210E947F210E94F9210E94002109
:103BE0000E94AC210E9432320E94F0010E94C60362
:103BF000CF91DF910895DF93CF93CDB7DEB780915A
:103C00001205813049F480914C088F3F29F0809152
:103C10004C088F5F80934C08CF91DF910895DF931C
:103C2000CF930F92CDB7DEB7198280911205813004
:103C300009F053C00E94C300898380914C088823F7
:103C400029F080914C08815080934C0880914C0859
:103C5000882309F03FC080910F058823D9F50E9481
:103C6000F6229091190580918A07981799F1809111
:103C70001905882F90E0880F991FFC01E051F44F3F
:103C8000808191819093970780939607E0919607A2
:103C9000F0919707858D968DA78DB0A10196A11DF6
:103CA000B11D858F968FA78FB0A380918D079091BE
:103CB0008E07A0918F07B09190070196A11DB11DAD
:103CC00080938D0790938E07A0938F07B0939007F2
:103CD0000E94870189810E94C6000F90CF91DF91D9
:103CE0000895DF93CF930F92CDB7DEB719828091FD
:103CF0001205813099F40E94C300898380914C0899
:103D0000882349F480910F058F3F29F080910F059A
:103D10008F5F80930F0589810E94C6000F90CF911D
:103D2000DF910895DF93CF930F92CDB7DEB719825D
:103D300080911205813029F50E94C300898380910A
:103D40000F058823D9F080910F05815080930F05CE
:103D500080910F05882371F480914C08882331F4F9
:103D600089810E94C6000E94A2220BC089810E9404
:103D7000C60007C089810E94C60003C089810E94D5
:103D8000C6000F90CF91DF910895DF93CF93CDB709
:103D9000DEB7809112058823F9F40E94F622809103
:103DA000190580938A0780911905882F90E0880F64
:103DB000991FFC01E051F44F808191819093970706
:103DC00080939607809196079091970790934E085D
:103DD00080934D080E94C800CF91DF910895DF9332
:103DE000CF9300D0CDB7DEB719820E94A7030E94FF
:103DF000C30089838091530890915408A09155087D
:103E0000B09156080196A11DB11D8093530890935F
:103E10005408A0935508B093560889810E94C600A3
:103E200080911205813009F06FC080918B079091CD
:103E30008C079B838A8362C00E94C3008983EA81C6
:103E4000FB8184899589009709F44FC0EA81FB8141
:103E5000848995890197EA81FB81958B848BEA811E
:103E6000FB8184899589009709F03FC0EA81FB8135
:103E70008689882F90E087739070009761F0EA81BF
:103E8000FB818689887CEA81FB81868BEA81FB81C4
:103E900081E0878B03C0EA81FB81178AEA81FB817D
:103EA0008689882F90E0887090700097F1F4EA81FD
:103EB000FB81948D80919807892B80939807EA81E4
:103EC000FB81828D282F30E0EA81FB81828D882F53
:103ED00090E0FC01E756F84F9081EA81FB81838DE9
:103EE000892BF901E756F84F8083EA81FB818685AB
:103EF00097859B838A8389810E94C600EA81FB8122
:103F0000808D8A3009F098CF0F900F900F90CF914D
:103F1000DF910895DF93CF93CDB7DEB78EE191E0C7
:103F2000CF91DF910895DF93CF93CDB7DEB72B9775
:103F30000FB6F894DEBF0FBECDBF9F838E83798707
:103F400068874A872B87EE81FF818581882F90E0E3
:103F5000FC01E056FC4F80818B838B81282F30E061
:103F60008E819F81820F931FFC0136968081882F5E
:103F700090E0FC01E056FC4F80818A838B81982F72
:103F8000990F990F990F8A81890F89838981882FC9
:103F900090E0880F991FFC01E051F44F80819181DE
:103FA0009D838C83EC81FD81158A148AEC81FD81CF
:103FB0008689982F8A8580958923EC81FD81868B5F
:103FC000EC81FD818B85878BEC81FD818689882F33
:103FD00090E0887090700097D1F4EC81FD81948D11
:103FE00080919807892B809398078B81282F30E048
:103FF0008B81882F90E0FC01E756F84F9081EC818F
:10400000FD81838D892BF901E756F84F80838C81E0
:104010009D812E813F81B9010E948D2089812B963F
:104020000FB6F894DEBF0FBECDBFCF91DF910895DC
:10403000DF93CF9300D0CDB7DEB79B838A83E09127
:104040004D08F0914E088A819B81938B828BE09181
:104050004D08F0914E08828D482F50E0E0914D08B8
:10406000F0914E08828D282F30E08A819B81820F4B
:10407000931FFC0136969081E0914D08F0914E0817
:10408000838D292F282B8A819B81840F951FFC010A
:1040900036962083EA81FB819581E0914D08F0916D
:1040A0004E08848D892BEA81FB818583E0914D0840
:1040B000F0914E08828D89838981282F30E0898193
:1040C000882F90E0FC01E756F84F8081982FE0910F
:1040D0004D08F0914E08838D80958923F901E756AC
:1040E000F84F80838981882F90E0FC01E756F84FD4
:1040F0008081882361F4E0914D08F0914E08848D11
:10410000982F9095809198078923809398070F9016
:104110000F900F90CF91DF910895DF93CF9300D050
:104120000F920F92CDB7DEB79B838A837D836C831A
:10413000EA81FB81828D89838981482F50E08981C2
:10414000282F30E08C819D81820F931FFC013696D1
:104150008081982FEA81FB81838D80958923282F88
:104160008C819D81840F951FFC0136962083898167
:10417000282F30E08C819D81820F931FFC013696A1
:104180008081882361F4EC81FD818581982FEA810B
:10419000FB81848D80958923EC81FD8185830F903F
:1041A0000F900F900F900F90CF91DF910895DF93B4
:1041B000CF9300D00F920F92CDB7DEB79D838C8343
:1041C000EC81FD8115828C819D8106969B838A837B
:1041D00019820BC0EA81FB8110828A819B81019642
:1041E0009B838A8389818F5F89838981823090F361
:1041F0000F900F900F900F900F90CF91DF91089537
:10420000DF93CF9300D000D0CDB7DEB788E099E040
:1042100060EF70E00E94502288E099E09C838B83DD
:1042200080E299E09A8389831E821D821FC0EB8100
:10423000FC811082EB81FC8189819A819283818348
:10424000EB81FC818FE38087EB81FC8111868B8180
:104250009C8148969C838B8389819A8148969A8316
:1042600089838D819E8101969E838D838D819E8120
:1042700089309105E0F2EB81FC811082EB81FC81B9
:1042800012821182EB81FC818FE38087EB81FC81BC
:10429000118688E099E090934B0880934A0826960F
:1042A0000FB6F894DEBF0FBECDBFCF91DF9108955A
:1042B000DF93CF93CDB7DEB7109253081092540816
:1042C000109255081092560810924C0810920F0543
:1042D000109295071092120510928D0710928E077A
:1042E00010928F07109290071092130510921405E8
:1042F0001092150510921605CF91DF910895DF9366
:10430000CF9300D0CDB7DEB71092980789E997E038
:104310009A8389831B820BC0E981FA81108289818B
:104320009A8101969A8389838B818F5F8B838B819E
:10433000823090F310928A07109219051092970715
:104340001092960710924E0810924D080F900F9001
:104350000F90CF91DF9108958F929F92AF92BF926D
:10436000CF92DF92EF92FF920F931F93DF93CF9341
:104370000F92CDB7DEB70F920F92EDB7FEB7319621
:104380002BE633E247E059E0A9E5B8E083E090E0AE
:1043900091838083C90160E070E02AE00FEF1FEF96
:1043A0007D010F2EFFEAAF2EF0E0BF2EF0E0CF2E02
:1043B000F0E0DF2EF02D882499240E94C2280F906F
:1043C0000F9020EA34E08AE0B9019E012F5F3F4F51
:1043D000A9010E94D4290F90CF91DF911F910F91D5
:1043E000FF90EF90DF90CF90BF90AF909F908F9015
:1043F0000895DF93CF9300D00F920F92CDB7DEB721
:1044000088EF99E068EF71E00E94502280EF9BE016
:1044100066E170E00E94502288EF99E09C838B83D4
:1044200087E39AE09A8389831D821AC0EB81FC811D
:1044300089819A8197878687EB81FC818FE387A7A3
:10444000EB81FC8110AA8B819C81CF969C838B830E
:1044500089819A81CF969A8389838D818F5F8D839D
:104460008D81873018F3EB81FC8117861686EB81EE
:10447000FC818FE387A7EB81FC8110AA10928C0747
:1044800010928B0788EF99E090939407809393079D
:104490000F900F900F900F900F90CF91DF91089594
:1044A000DF93CF9300D00F92CDB7DEB79A83898385
:1044B0007C836B830DC0E981FA81108289819A81A6
:1044C00001969A8389838B819C8101979C838B833E
:1044D0008B819C81009779F70F900F900F900F9030
:1044E000CF91DF910895DF93CF9300D000D0CDB767
:1044F000DEB79A8389837C836B835E834D8315C08B
:10450000EB81FC818081E981FA81808389819A81B4
:1045100001969A8389838B819C8101969C838B83EE
:104520008D819E8101979E838D838D819E810097D1
:1045300039F726960FB6F894DEBF0FBECDBFCF91E8
:10454000DF910895DF93CF930F92CDB7DEB7198235
:104550000E94C300898380914C08882309F03FC0E2
:1045600080910F058823D9F50E94F62290911905B4
:1045700080918A07981799F180911905882F90E00A
:10458000880F991FFC01E051F44F80819181909335
:10459000970780939607E0919607F0919707858D8E
:1045A000968DA78DB0A10196A11DB11D858F968F07
:1045B000A78FB0A380918D0790918E07A0918F0750
:1045C000B09190070196A11DB11D80938D07909326
:1045D0008E07A0938F07B09390070E94FD008981FA
:1045E0000E94C6000F90CF91DF910895DF93CF9383
:1045F0000F92CDB7DEB780919807882F90E0FC012D
:10460000E056FC4F808189838981282F220F220F59
:10461000220F8981882F90E0FC01E756F84F8081B6
:10462000882F90E0FC01E056FC4F8081820F809340
:1046300019050F90CF91DF910895DF93CF9300D0AC
:104640000F920F92CDB7DEB79B838A837D836C83F5
:10465000198213C0EC81FD818081EA81FB81808316
:104660008A819B8101969B838A838C819D8101969F
:104670009D838C8389818F5F8983EC81FD8180811B
:10468000882341F7EA81FB81108289810F900F9086
:104690000F900F900F90CF91DF910895DF93CF93FC
:1046A00000D0CDB7DEB79B838A83198208C08A8188
:1046B0009B8101969B838A8389818F5F8983EA81AD
:1046C000FB818081882399F789810F900F900F904B
:1046D000CF91DF910895DF93CF9300D0CDB7DEB7B0
:1046E0009B838A8319820E94C3008983809113056A
:1046F00090911405A0911505B09116050196A11D84
:10470000B11D8093130590931405A0931505B093E4
:10471000160589810E94C6000E941902E4CFAF925B
:10472000BF92CF92DF92EF92FF920F931F93DF938E
:10473000CF93CDB7DEB763970FB6F894DEBF0FBE49
:10474000CDBF8C837E836D8358874F833A872987BB
:10475000EB86FC860D871E87D88ACF86BA8AA98AFF
:1047600019820E94C30089838091930790919407D6
:104770009B838A838A819B81009709F4F1C0EA8137
:10478000FB81868597859093940780939307898111
:104790000E94C600EA81FB818D819E819183808386
:1047A000EA81FB818C81808FEA81FB81168AEA8114
:1047B000FB81178AEA81FB81158A148AEA81FB81D1
:1047C0008F85988993838283EA81FB818B859C8581
:1047D000AD85BE8586839783A087B187EA81FB81FB
:1047E0008F81988595838483EA81FB8189899A8961
:1047F00093878287EA81FB8189859A85958784875B
:104800008C81869586958695EA81FB81828F8C8145
:104810008770EA81FB81818FEA81FB81828D282F5D
:1048200030E081E090E002C0880F991F2A95E2F7FE
:10483000EA81FB81848FEA81FB81818D282F30E022
:1048400081E090E002C0880F991F2A95E2F7EA8183
:10485000FB81838FEA81FB81138A128AEA81FB81C3
:10486000158E168E178E10A2EA81FB8115A216A254
:1048700017A210A6EA81FB8111A212A213A214A210
:10488000EA81FB8112A611A6EA81FB8113A614A678
:1048900015A616A6EA81FB818FE387A7EA81FB8133
:1048A00010AA8A819B810E9496038A819B810E9423
:1048B000F7010E94C30089838C81882F90E0880FC4
:1048C000991FFC01E051F44F8A819B819183808381
:1048D00080918B0790918C07EA81FB81978786876F
:1048E000EA81FB81118A108A80918B0790918C0755
:1048F000009741F0E0918B07F0918C078A819B81B2
:10490000918B808B8A819B8190938C0780938B07FE
:10491000EA81FB81948D80919807892B8093980779
:10492000EA81FB81828D282F30E0EA81FB81828D34
:10493000882F90E0FC01E756F84F9081EA81FB81D7
:10494000838D892BF901E756F84F80838091950775
:104950008F5F8093950789810E94C6001B8A05C0DE
:1049600089810E94C60082E48B8B8B8963960FB687
:10497000F894DEBF0FBECDBFCF91DF911F910F9195
:10498000FF90EF90DF90CF90BF90AF900895DF93AE
:10499000CF93CDB7DEB727970FB6F894DEBF0FBE23
:1049A000CDBF9D838C831982EC81FD818081833012
:1049B00019F01F821E821DC00E94C3008983EC81F2
:1049C000FD81838194819B838A838A819B81009767
:1049D00049F0EC81FD81838194810197EC81FD8117
:1049E0009483838389810E94C6008A819B819F83EF
:1049F0008E838E819F8127960FB6F894DEBF0FBEFF
:104A0000CDBFCF91DF910895DF93CF93CDB7DEB7C0
:104A100027970FB6F894DEBF0FBECDBF9D838C8362
:104A2000198280914C08882319F01F821E823DC094
:104A30000E94C300898380914A0890914B089B8310
:104A40008A8380914A0890914B08009751F0E09139
:104A50004A08F0914B088181928190934B08809392
:104A60004A0889810E94C6008A819B810097C9F00B
:104A7000EA81FB8183E08083EA81FB818C819D81D7
:104A800094838383EA81FB8112821182EA81FB8114
:104A90008FE38087EA81FB8111868A819B810E9456
:104AA000D7208A819B819F838E838E819F812796C9
:104AB0000FB6F894DEBF0FBECDBFCF91DF91089542
:104AC000DF93CF93CDB7DEB72D970FB6F894DEBF47
:104AD0000FBECDBF9E838D836F8359874887198210
:104AE000ED81FE818081833049F0E885F98581E0A0
:104AF00080832D813E813D872C87A2C080914C0808
:104B0000882349F0E885F9858FE080838D819E8137
:104B10009D878C8795C00E94C3008983ED81FE81AB
:104B20008581882319F081E08C8301C01C828F81EC
:104B3000282F30E03B872A878A859B85009731F0B4
:104B40002A853B8521303105E9F16BC08C818823B2
:104B500029F5ED81FE818FE38087ED81FE8111864D
:104B6000ED81FE81108280914A0890914B08ED8181
:104B7000FE8192838183ED81FE81148213828D8177
:104B80009E8190934B0880934A0889810E94C600B9
:104B9000E885F98510821B821A824EC089810E94A5
:104BA000C600E885F98589E480838D819E819B8399
:104BB0008A8342C08D819E8160E070E041E020E008
:104BC0000E94931FED81FE818581882399F7ED81F5
:104BD000FE818FE38087ED81FE811186ED81FE816C
:104BE000108280914A0890914B08ED81FE8192835A
:104BF0008183ED81FE81148213828D819E81909349
:104C00004B0880934A0889810E94C6008C818130BC
:104C100011F40E94A222E885F98510821B821A8273
:104C20000BC089810E94C600E885F98587E08083F2
:104C30008D819E819B838A838A819B819D878C87BE
:104C40008C859D852D960FB6F894DEBF0FBECDBF27
:104C5000CF91DF910895DF93CF93CDB7DEB729973A
:104C60000FB6F894DEBF0FBECDBF9B838A837D83D2
:104C70006C835F834E831982EA81FB81808183305C
:104C800029F0EE81FF8181E080838CC080914C0807
:104C9000882329F0EE81FF8182E0808383C08091A8
:104CA0000F05882329F0EE81FF818DE080837AC093
:104CB0000E94C3008983EA81FB81838194810097EC
:104CC00081F0EA81FB81838194810197EA81FB81F4
:104CD0009483838389810E94C600EE81FF811082C4
:104CE00061C0A0914D08B0914E08E0914D08F0913F
:104CF0004E088689816056968C93E0914D08F0911C
:104D00004E08178AE0914D08F0914E088C819D81E4
:104D1000958B848B8A819B810E94182089810E94B7
:104D2000C6000E94A2220E94C3008983E0914D0820
:104D3000F0914E088789282F30E0398728878885A9
:104D40009985009731F0288539852230310529F081
:104D500009C0EE81FF81108212C0EE81FF818EE0DA
:104D600080830DC080914D0890914E082A813B812F
:104D7000B9010E948D20EE81FF818AE08083E0915D
:104D80004D08F0914E08168AE0914D08F0914E08BA
:104D9000178AE0914D08F0914E08138A128A898192
:104DA0000E94C60029960FB6F894DEBF0FBECDBF95
:104DB000CF91DF910895DF93CF93CDB7DEB72897DA
:104DC0000FB6F894DEBF0FBECDBF9C838B836D837F
:104DD0005F834E831982EB81FC818081833031F0C7
:104DE000EE81FF8181E0808318863FC00E94C3006E
:104DF0008983EB81FC818581882381F11A828D81F1
:104E0000882F90E08130910561F011C08B819C81E9
:104E100060E070E041E022E00E94931F8A818F5F92
:104E20008A83EB81FC818581882381F70BC08B818C
:104E30009C8160E070E041E022E00E94931F8A8143
:104E40008F5F8A8389810E94C6000E94A222EE8120
:104E5000FF818EE080838A81888707C089810E94D4
:104E6000C600EE81FF8110821886888528960FB6CD
:104E7000F894DEBF0FBECDBFCF91DF910895DF93D1
:104E8000CF9300D00F92CDB7DEB79B838A83198270
:104E9000EA81FB818081833019F021E02C8332C0CC
:104EA0000E94C3008983EA81FB818581882379F090
:104EB0008A819B8160E070E041E020E00E94931FC6
:104EC00089810E94C6000E94A2221C821BC0EA8126
:104ED000FB81838194812FEF8F3F920771F0EA81EC
:104EE000FB81838194810196EA81FB819483838392
:104EF00089810E94C6001C8205C089810E94C6006B
:104F000082E38C838C810F900F900F900F90CF9144
:104F1000DF910895DF93CF93CDB7DEB72B970FB610
:104F2000F894DEBF0FBECDBF98878F837A876987DD
:104F30001982EF81F8858081833019F081E08B87B9
:104F400037C00E94C3008983EF81F8858581E98598
:104F5000FA8584838F81988506969E838D838985C3
:104F60009A8502969C838B831A8213C0ED81FE8101
:104F70008081EB81FC8180838B819C8101969C8365
:104F80008B838D819E8101969E838D838A818F5F25
:104F90008A838A81823050F3EF81F88583819481FE
:104FA000E985FA859183808389810E94C6001B86EA
:104FB0008B852B960FB6F894DEBF0FBECDBFCF9179
:104FC000DF910895DF93CF93CDB7DEB727970FB664
:104FD000F894DEBF0FBECDBF9B838A837D836C8335
:104FE0005F834E831982EA81FB818081833029F0BF
:104FF000EE81FF8181E0808326C00E94C300898307
:10500000EE81FF811082EA81FB8183819481009788
:1050100039F0EA81FB818C819D819483838310C068
:10502000EA81FB818581882339F4EA81FB818C81C7
:105030009D819483838304C0EE81FF8189E4808312
:1050400089810E94C60027960FB6F894DEBF0FBE76
:10505000CDBFCF91DF910895AF92BF92CF92DF92F3
:10506000EF92FF920F931F93DF93CF93CDB7DEB7ED
:105070002C970FB6F894DEBF0FBECDBF9E838D83F5
:1050800078876F835A8749872B8719820E94C300CC
:10509000898380914C08882331F089810E94C60061
:1050A0008CE38C875DC08B85882F90E0880F991FDB
:1050B000FC01E051F44F80819181009709F04BC0D1
:1050C0008B85882F90E0880F991FFC01E051F44FE9
:1050D00081E090E09183808389810E94C6008D8168
:1050E0009E812F81388549855A85B90120E030E0BD
:1050F0000E942B029C838B832B813C818B85B90181
:1051000040E050E020E030E0EE24FF248701CC2492
:10511000DD24AA24BB240E948F238A838A818823CA
:1051200039F480911205813099F40E94A22210C0B6
:105130000E94C30089838B85882F90E0880F991F78
:10514000FC01E051F44F1182108289810E94C60057
:105150008A818C8705C089810E94C60088E28C877D
:105160008C852C960FB6F894DEBF0FBECDBFCF91C5
:10517000DF911F910F91FF90EF90DF90CF90BF9044
:10518000AF9008958F929F92AF92BF92CF92DF928D
:10519000EF92FF920F931F93DF93CF93CDB7DEB7BC
:1051A00066970FB6F894DEBF0FBECDBF9E838D838A
:1051B00078876F835A8749872B871D870C87FF86DF
:1051C000EE86A88AB98ACA8ADB8A9D8A8C8A198265
:1051D0000E94C300898380914C08882331F0898123
:1051E0000E94C6008CE38E8B61C08B85882F90E077
:1051F000880F991FFC01E051F44F80819181009745
:1052000009F04FC08B85882F90E0880F991FFC0113
:10521000E051F44F81E090E09183808389810E9486
:10522000C6008D819E812F81388549855A85EEA1E2
:10523000FFA1B9019F010E942B029C838B832B81CC
:105240003C814E855F85EC85FD85E888F9880A8973
:105250001B89AC89BD89AEA0BFA08B85B9019F0118
:105260006D010E948F238A838A81882339F480917B
:105270001205813099F40E94A22210C00E94C3003E
:1052800089838B85882F90E0880F991FFC01E0515E
:10529000F44F1182108289810E94C6008A818E8B10
:1052A00005C089810E94C60088E28E8B8E89669631
:1052B0000FB6F894DEBF0FBECDBFCF91DF911F9127
:1052C0000F91FF90EF90DF90CF90BF90AF909F90A5
:1052D0008F900895DF93CF93CDB7DEB72A970FB69F
:1052E000F894DEBF0FBECDBF8D837F836E83598759
:1052F0004887198280914C08882331F0E885F98528
:1053000081E180831A8646C00E94C30089838D8113
:105310008F3F31F4E0914D08F0914E08808D8D83E0
:105320008D81882F90E0880F991FFC01E051F44F88
:10533000808191819C838B838B819C81009749F430
:1053400089810E94C600E885F98583E480831A86F6
:1053500021C08B819C818130910549F489810E9413
:10536000C600E885F98583E480831A8613C08B81A3
:105370009C819C01215D3F4F8E819F81B9010E94DC
:105380001D238A8389810E94C600E885F9851082E1
:105390008A818A878A852A960FB6F894DEBF0FBE67
:1053A000CDBFCF91DF910895DF93CF93CDB7DEB717
:1053B00029970FB6F894DEBF0FBECDBF8D837F83D4
:1053C0006E8359874887198280914C08882329F079
:1053D000E885F98582E180834FC00E94C3008983FC
:1053E0008D818F3F31F4E0914D08F0914E08808D12
:1053F0008D838D81882F90E0880F991FFC01E051EB
:10540000F44F808191819B838A838A819B8100975D
:1054100041F489810E94C600E885F98583E4808390
:105420002BC08A819B818130910541F489810E9442
:10543000C600E885F98583E480831EC08E819F8144
:105440000E944E238C838C81803140F089810E94A0
:10545000C600E885F98581E480830EC08A819B813E
:105460008F962E813F81B9010E941D2389810E9460
:10547000C600E885F985108229960FB6F894DEBF3C
:105480000FBECDBFCF91DF910895DF93CF9300D0B2
:105490000F920F92CDB7DEB78C8319820E94C300A2
:1054A00089838C81882F90E0880F991FFC01E0513F
:1054B000F44F808191819B838A838A819B810097AD
:1054C00031F489810E94C60086E48D835DC08A81A3
:1054D0009B818130910531F489810E94C60083E46B
:1054E0008D8352C0EA81FB818689882F90E0887085
:1054F0009070009709F443C0EA81FB818689877F19
:10550000EA81FB81868BEA81FB818689882391F57C
:10551000EA81FB8184899589009741F5EA81FB81C5
:10552000948D80919807892B80939807EA81FB815D
:10553000828D282F30E0EA81FB81828D882F90E0D8
:10554000FC01E756F84F9081EA81FB81838D892B1E
:10555000F901E756F84F808389810E94C600809147
:105560001205813051F40E94A22207C089810E9455
:10557000C60003C089810E94C6001D8205C08981C2
:105580000E94C60084E48D838D810F900F900F9050
:105590000F900F90CF91DF910895DF93CF93CDB708
:1055A000DEB727970FB6F894DEBF0FBECDBF8E8350
:1055B00019820E94C30089838E818F3F49F4E09154
:1055C0004D08F0914E08808D8E8381E08D830CC054
:1055D000E0914D08F0914E08908D8E81981719F446
:1055E00081E08D8301C01D828E81882F90E0880F1D
:1055F000991FFC01E051F44F808191819C838B8342
:105600008B819C81009731F489810E94C60088E4D7
:105610008F8346C08B819C818130910531F48981D3
:105620000E94C60083E48F833BC0EB81FC81828DA6
:105630008A838A81282F30E08A81882F90E0FC01BC
:10564000E756F84F8081982FEB81FC81838D809500
:105650008923F901E756F84F80838A81882F90E0EB
:10566000FC01E756F84F8081882351F4EB81FC81DF
:10567000848D982F9095809198078923809398071F
:10568000EB81FC8186898860EB81FC81868B898136
:105690000E94C6008D81813011F40E94A2221F82D7
:1056A0008F8127960FB6F894DEBF0FBECDBFCF9186
:1056B000DF910895DF93CF93CDB7DEB727970FB66D
:1056C000F894DEBF0FBECDBF8C837E836D831982BD
:1056D0000E94C30089838C818F3F31F4E0914D0893
:1056E000F0914E08808D8C838C81882F90E0880FFC
:1056F000991FFC01E051F44F808191819B838A8343
:105700008A819B81009731F489810E94C60089E2D9
:105710008F8318C08A819B818130910531F4898102
:105720000E94C60083E48F830DC08D819E812A81F3
:105730003B81B9014FE350E00E94732289810E94AE
:10574000C6001F828F8127960FB6F894DEBF0FBE6A
:10575000CDBFCF91DF910895DF93CF9300D00F920B
:10576000CDB7DEB79C838B83198280914C08882348
:1057700009F046C08B819C81009709F441C00E94CA
:10578000C3008983E0914D08F0914E08828D8A8391
:105790008A81282F30E08A81882F90E0FC01E7562B
:1057A000F84F8081982FE0914D08F0914E08838D3D
:1057B00080958923F901E756F84F80838A81882FE5
:1057C00090E0FC01E756F84F8081882361F4E09176
:1057D0004D08F0914E08848D982F909580919807F0
:1057E000892380939807E0914D08F0914E088B81B2
:1057F0009C81958B848B89810E94C6000E94A22285
:105800000F900F900F900F90CF91DF910895EF922E
:10581000FF920F931F93DF93CF93CDB7DEB72C97F3
:105820000FB6F894DEBF0FBECDBF8F836887498760
:105830003B872A8780914C08882319F085E58C875F
:1058400086C08F81882F90E0A0E0B0E020E13EE0AC
:1058500040E050E0BC01CD010E94F93D7B018C018C
:105860008885882F90E0A0E0B0E02CE330E040E0B5
:1058700050E0BC01CD010E94F93DDC01CB01A80143
:105880009701280F391F4A1F5B1F8985882F90E0D9
:10589000A0E0B0E0820F931FA41FB51F24E630E004
:1058A00040E050E0BC01CD010E94F93D7B018C013C
:1058B0008A859B85CC01A0E0B0E024E630E040E0A2
:1058C00050E0BC01CD010E94F93DDC01CB018C50C0
:1058D0009E4FAF4FBF4F28EE33E040E050E0BC0199
:1058E000CD010E942B3EDA01C9018E0D9F1DA01F24
:1058F000B11F8B839C83AD83BE838B819C81AD81E3
:10590000BE81CD01AA27BB279A8389838B819C8185
:10591000AD81BE81A070B0708B839C83AD83BE834C
:105920008B819C810E94AC2B0DC080E090E80E948E
:10593000AC2B80E090E80E94AC2B89819A81019782
:105940009A83898389819A81009779F71C868C854F
:105950002C960FB6F894DEBF0FBECDBFCF91DF916E
:105960001F910F91FF90EF900895DF93CF9300D098
:105970000F920F92CDB7DEB78C8319828C818A305B
:1059800018F08AE28D837DC00E94C30089838C81D8
:10599000882F90E0880F991FFC01E051F44F80811F
:1059A00091819B838A838A819B81009731F48981CD
:1059B0000E94C60083E48D8364C08A819B8181300C
:1059C000910531F489810E94C60083E48D8359C01A
:1059D000EA81FB8184899589009731F489810E944D
:1059E000C60080E58D834DC0EA81FB81158A148A4B
:1059F000EA81FB818689882F90E0877390700097F9
:105A000061F0EA81FB818689887CEA81FB81868B53
:105A1000EA81FB8181E0878B03C0EA81FB81178AE1
:105A2000EA81FB818689882F90E0887090700097CA
:105A300021F5EA81FB81948D80919807892B8093D1
:105A40009807EA81FB81828D282F30E0EA81FB8173
:105A5000828D882F90E0FC01E756F84F9081EA8113
:105A6000FB81838D892BF901E756F84F808389816B
:105A70000E94C6000E94A22203C089810E94C60023
:105A80001D828D810F900F900F900F900F90CF91EE
:105A9000DF910895DF93CF9300D00F920F92CDB78F
:105AA000DEB719820E94C3008983809153089091C8
:105AB0005408A0915508B09156088A839B83AC8303
:105AC000BD8389810E94C6008A819B81AC81BD8192
:105AD000BC01CD010F900F900F900F900F90CF91C0
